{
  "context": {
    "gasLimit": "4722976",
    "miner": "0x1585936b53834b021f68cc13eeefdec2efc8e724",
    "number": "2289806",
    "timestamp": "1513601314",
    "baseFeePerGas": "7"
  },
  "genesis": {
    "alloc": {
      "0x0024f658a46fbb89d8ac105e98d7ac7cbbaf27c5": {
        "balance": "0x0",
        "code": "0x",
        "nonce": "22",
        "storage": {}
      },
      "0x3b873a919aa0512d5a0f09e6dcceaa4a6727fafe": {
        "balance": "0x4d87094125a369d9bd5",
        "code": "0x606060405236156100935763ffffffff60e060020a60003504166311ee8382811461009c57806313af4035146100be5780631f5e8f4c146100ee57806324daddc5146101125780634921a91a1461013b57806363e4bff414610157578063764978f91461017f578063893d20e8146101a1578063ba40aaa1146101cd578063cebc9a82146101f4578063e177246e14610216575b61009a5b5b565b005b34156100a457fe5b6100ac61023d565b60408051918252519081900360200190f35b34156100c657fe5b6100da600160a060020a0360043516610244565b604080519115158252519081900360200190f35b34156100f657fe5b6100da610307565b604080519115158252519081900360200190f35b341561011a57fe5b6100da6004351515610318565b604080519115158252519081900360200190f35b6100da6103d6565b604080519115158252519081900360200190f35b6100da600160a060020a0360043516610420565b604080519115158252519081900360200190f35b341561018757fe5b6100ac61046c565b60408051918252519081900360200190f35b34156101a957fe5b6101b1610473565b60408051600160a060020a039092168252519081900360200190f35b34156101d557fe5b6100da600435610483565b604080519115158252519081900360200190f35b34156101fc57fe5b6100ac61050d565b60408051918252519081900360200190f35b341561021e57fe5b6100da600435610514565b604080519115158252519081900360200190f35b6003545b90565b60006000610250610473565b600160a060020a031633600160a060020a03161415156102705760006000fd5b600160a060020a03831615156102865760006000fd5b50600054600160a060020a0390811690831681146102fb57604051600160a060020a0380851691908316907ffcf23a92150d56e85e3a3d33b357493246e55783095eb6a733eb8439ffc752c890600090a360008054600160a060020a031916600160a060020a03851617905560019150610300565b600091505b5b50919050565b60005460a060020a900460ff165b90565b60006000610324610473565b600160a060020a031633600160a060020a03161415156103445760006000fd5b5060005460a060020a900460ff16801515831515146102fb576000546040805160a060020a90920460ff1615158252841515602083015280517fe6cd46a119083b86efc6884b970bfa30c1708f53ba57b86716f15b2f4551a9539281900390910190a16000805460a060020a60ff02191660a060020a8515150217905560019150610300565b600091505b5b50919050565b60006103e0610307565b801561040557506103ef610473565b600160a060020a031633600160a060020a031614155b156104105760006000fd5b610419336105a0565b90505b5b90565b600061042a610307565b801561044f5750610439610473565b600160a060020a031633600160a060020a031614155b1561045a5760006000fd5b610463826105a0565b90505b5b919050565b6001545b90565b600054600160a060020a03165b90565b6000600061048f610473565b600160a060020a031633600160a060020a03161415156104af5760006000fd5b506001548281146102fb57604080518281526020810185905281517f79a3746dde45672c9e8ab3644b8bb9c399a103da2dc94b56ba09777330a83509929181900390910190a160018381559150610300565b600091505b5b50919050565b6002545b90565b60006000610520610473565b600160a060020a031633600160a060020a03161415156105405760006000fd5b506002548281146102fb57604080518281526020810185905281517ff6991a728965fedd6e927fdf16bdad42d8995970b4b31b8a2bf88767516e2494929181900390910190a1600283905560019150610300565b600091505b5b50919050565b60006000426105ad61023d565b116102fb576105c46105bd61050d565b4201610652565b6105cc61046c565b604051909150600160a060020a038416908290600081818185876187965a03f1925050501561063d57604080518281529051600160a060020a038516917f9bca65ce52fdef8a470977b51f247a2295123a4807dfa9e502edf0d30722da3b919081900360200190a260019150610300565b6102fb42610652565b5b600091505b50919050565b60038190555b505600a165627a7a72305820f3c973c8b7ed1f62000b6701bd5b708469e19d0f1d73fde378a56c07fd0b19090029",
        "nonce": "1",
        "storage": {
          "0x0000000000000000000000000000000000000000000000000000000000000000": "0x00000000000000000000000120bb8cb4a01637a773811ba45b9afd80171a08c5",
          "0x0000000000000000000000000000000000000000000000000000000000000001": "0x00000000000000000000000000000000000000000000000006f05b59d3b20000",
          "0x0000000000000000000000000000000000000000000000000000000000000002": "0x000000000000000000000000000000000000000000000000000000000000003c",
          "0x0000000000000000000000000000000000000000000000000000000000000003": "0x000000000000000000000000000000000000000000000000000000005a37b834"
        }
      },
      "0x20bb8cb4a01637a773811ba45b9afd80171a08c5": {
        "balance": "0x1780d77678137ac1b775",
        "code": "0x",
        "nonce": "29072",
        "storage": {}
      }
    },
    "config": {
      "chainId": 3
    },
    "extraData": "0x4554482e45544846414e532e4f52472d4641313738394444",
    "gasLimit": "4727564",
    "hash": "0x609948ac3bd3c00b7736b933248891d6c901ee28f066241bddb28f4e00a9f440",
    "miner": "0xbbf5029fd710d227630c8b7d338051b8e76d50b3",
    "mixHash": "0xb131e4507c93c7377de00e7c271bf409ec7492767142ff0f45c882f8068c2ada",
    "number": "2289805",
    "stateRoot": "0xc7f10f352bff82fac3c2999d3085093d12652e19c7fd32591de49dc5d91b4f1f",
    "timestamp": "1513601261",
    "baseFeePerGas": "7"
  },
  "input": "0x02f91c630382719080843b9aca0083030d40943b873a919aa0512d5a0f09e6dcceaa4a6727fafe80a463e4bff40000000000000000000000000024f658a46fbb89d8ac105e98d7ac7cbbaf27c5c0b90a2015265e09df48fdbb4d25a903611ab26033165930ce5ee140d3c112ce36b59cfdedb85fbda39a2774265af592a87610fba65391a92ac97ebc0f1b599809d6f56594d4cf93c2d9c5457edc684bc22301385df82a2e714d067966634865e0ec4c4085bdbb066338b0cc4a75302272360bbd4cf3e41b754d30962573adfcc2d0d5c7def9424572703ab38ec77dafa6740aa67892b2447f94b758a1f92a5321ff7e39e588174f941b645be3a34715d49bf38c01fd15e799f8cc52d2675a739be2dff51e8f6d4feb7d04c3662e50286d9a109169d25a860f6564dda751e30d159f995260168d18c16f7797769467391ef30763b62401bdca0a316d25ac41e205bf0663f476a7a3ccde674135469d56cbb7b2e6d66da1b38192f8155d2195289aca181c956054810115c4e4766dc5cfb5cac05a7e0d654ff700fedf4e6bc6ba4400fe8a43bdb1139ee7ecacefe1be802455465c6c3f77355cf08b64ac5f6bd0032ba011a77434a21690a769e48dfa379726c757f6b64fc39e454ada5a88b17dfde181caa1f9d7cfce81c351ebe8c45a42ed53bf8ef75d3cf79ee01b7c1144becc69f11eb0e7a8c0f602f1c3d8534c5b36d17f05652d022dd67eac322964e2b6e09f07229a93ceaf5674426091a54e59ab18a6f6003a4a65bde2ad781e2b06ccfafdf62a75579cf3b34511a9bcdb8a0e4a593e8ba6e968412400d5b0bd7288983c463b16a37a3afd2691136fa59613fe5d52fa105be06e22feed475b76adeb7a735b2df574944f0cd82257bf240d5fd098b6baeed96d5d414ad2a2401f540dff4577c1c29548e66f3253b0c41173a9ba144bbef9315db6f992d87af3f392f69dea657ca569271e0b725e970edab865a0c33f3270ffd50359fd357955e00bb97619481409d5f018b719990e425e8678315146d77ede6c293f47e45cc595dacc9fe9a0f2d293113f512f179598ce4b29494701d92481d2cec8ae2f257d97049bdd8d577e810dcaecf24e884f8691d8076d42ed3c3c42b286237f9194a169b6383a332eb13347c7dd65818224703ce3e16d6b1822e47110642fb5b3b0a4784ffdb5bae7b3388fb84aed2d89e6221fa59c358ec4d936951598e22afa74dfbea412952f6e27f1f79a2e4cc76262e0a44bee442fedceb9dd0faaea099c6c1474abd9f80f9de17d5b6278dbedd89386c8bde061fd482b9761d31fd1c9e7cf5433d7e6b864e994e3ed94fbba4e4fe6fd3e92dec5b2d620747663991597c3e49d93698ae779660bb1df45e8ae0ddfb06312ebe9daa299cd0773d5d16b6ba94af05f833d6bb101311a13c9808d58aaa724af619ba59379e40eff798b09bdd5e9b8cea075ce2d8ee1666d2665f403677db0a8382081a0684d7adbed12a404dc34875d8eae71c6f6f2fa3d94302a6f4840fa257ccdfb8672dc845b3ad593ba5e7d0b72947cffda3a3f6ebe89abb1d147e2dc859b3fa2166b579a679b2735e4dc432bbacfa452252772c590195704b1fcd02942a32ef3909160e5bf2dd2054c955106ab070e082e5e844c86a4fc20292a132b4f2250a0bddfd047bfc0b1e93132c69f5185f5ee3f0cd5f8e866442d46be5237feb03aa4b54fb42cc7fb6b0260b345bccd472b009bb07c1139e3d35c69b1095ce24b9d33f70c705c1361d46e637666ac9b17473443768a362779b6b5fbc2ffdb4d420df56fe5662dccc8ee278531557441e4ad3d577a70c9b4ea5ced34eb08f617890a204495a05cd8190f4847c62cfae725d37a62daf6bf0f4bb87a520a0e686ff79e8c0b2a11cf54f0ee2576d9ab2cdedcb2d85040e0000ea95cf5268cdbd9bc86c3e28deb26e3611dfa12149d5afb986a8d96cffa22770ad1efdebd5a757bfff8f8fd83977d6ae71c381ee732d82ca0c2964898e3da0673608979d833c4a4c4a92dd844066fb19d9465f4bf70218a47146c8802dff58391c0a3bc721d8439d64ad9458e84812a6caf6cef0b07f1cf349f13859707da283c4b2da06f7e247388a0b6685091a544d9e541bec8c598f5351db9bdc978f063d70696761a58afffd11bf13ccf08ce8807564200c12fa04f7f090ea7173f69fe300b9c6f914ed8dbf63f83795eb4583ea2ede0f13461b030ba056df1b36e88940f33bb90c7267db29c1986f11d51b5e49965fb7ad3a62f1506d846ccedf4569f420bedd105b34c9cdc783a83a36d2e3d18fb95152b774b7d3d0aecae804f74b946d6fb3b07ed8fa3339f92546454cca532e8b2e8ca69dbb09cd96323ffc0f4fd3cb93a46a62c88577ef6bc53708e80a89fe44518029c70c6bfdab0dbf003c8f0d211c3e209f89b30c793c1ebaf007b790bc58a1d15574fbf082bcbd96ad9c345b2bd1346d9eaf8e488dcbbc521a9092fd17a2ad60c030bdd6351532067ffe09966d4c2b605c6b19a8bf64df0b3419435f9951c0a36cf0ecfd6eedf35619bb5f043520816a5acc437a65ef73b11d0c483dfa7261d931e53cc64bff10ddfba260b0d622c3bd38ed43625b453865f33052ce555d536d75edb676012d5497e073818fabb42b996613612231ed8c577b24a608d5216106d3f30db46c3b2c1f0d6f3730e56e198751237c52171e676792f14dc9981b14c8a6de932e5791611fbdef680d6975bc81b64e2da9769910dcc79fe8c375586cee6dd5343c43db5908b9809ae820fbf9f303bb0bc790da3e09f4e69eccb009cf98a65b7e2a18123f8a2f7dc925c12cb2241d7527944a11b3c9d39fa56f086bd437d46cbdf72790f2dfa1033aed92cfc608627e14cbbde7d5791efa693f22c67781e7efe71d30a147f455c884c9cff8170c392412a99c56866494a1b8d8f3cb93ece6cad05b9b267ffa185232853e57e646d0c8c25a47547a28f58aff90da4ba3404df064158caebd49547cbf048ed6b1e8e72b8516ddae8fff83fccf2599a93b46a1ceacd7b5841a882be7e56f6128a6d50ee7f89c8ed259f31dc3468f4f18b5a852080fc238f7a6586c44ccfa1837929c011c83d1ddf906256e03414d97ae5c85c1c2e939b7d02487efc7efca7ec35f044772ed3df56228f2c50461927e9149350849336213cd602941069119556237bd144f1fb8be57a29c602297c5cf111c2eb246106a30bdb5b4e043beabdb59ad494ee1385b132f6e8a44f9f2334c6e9f7f4d626c9ac7595a3e8bec665af3259313020c4ee2a8c446e01b5dc780cac22555ee2612c176edfa6825248ea7985ad7b418ae7bf7ef43f1e538d9dcde0510ef36ce7dee4088df43e4133ca23af19c03e02834bb6aff29aca247c615a552a3d60873985a6227f6d5759ac6560598adac9ce987a5609bc1bc9f81ae1699f6a2fcc902235c33244f9bc67c7731a0ea3936dfe095c6b94755a29b987186d40d2d360ae4432f82ec5e9b8d2ac2e35d50c1d309c658d81ecc965cec0dcc4d5f8625b6f5e5e59cdf485f654f56d4401d3867f2df215769052c1f5b57a604b370583e514b0df7c1a14b48442ada890014a6d4defc5f01e70fcfcd4dd6bda05955ad4bc9f9f46db91bedf2f44abf31149cff76046e3cfdadff7f34063eead986cfbf1ff6d3e56fe3a5af33cea69d6929b97f946ce8a6acdbb966b2afa1ac3de597574ccd589c510861516f371c0d0b85187b49fe45b518c78846ecdad72d3b4249301bc30a1e81c34c459e06171cf52d7b911f395fc531d81c56ec942ca75635605618394d05055db2ad547841e249da316ebaf05b4a4744244f562d95aa0a5258e031a77b7d50ec13729b3b6c238cad0b44dd980656e1e87a59c1fdd6b6a40778db94e21a89be621d0b1386ac6b07e035d488d901985686b5d58e7f3d79ddacce322252dea683497c0e7bbce8e04b0d8cc2c03bd424d57eba7abc5c95c3bb1fb0204ac19cbd6de6f4aeba608d3e472347801395c5209352cd818f353aecc8c6157c229722ca673df128ae25ec0a66ff125b3a361edd621fe10b1cced32a681986514bf92dd0f765f55d816686367e05335bdb8691d930dae3d2f4c667a1d0db5a39768b00ce3b73abeab6795278957c388f7d04f88cc16657afef808b3eed02144dfe301bbfb39cc66b77c76765e8d1d096e08026c886d5bdfa05aa614dcf550adc6b8ab9d8137e08b615166decd2ba2365294d82ddb15bc4612512b2e988218b2d3e00883fa2430668d65a6890b8072f4eb7886ed3eec502c99a95ddf2a3abdb17f86ebb43e70c39f33be5967f76d4d4b8340f9348d9e4e9e0720aabb561408c885d7a144a53e6385227ea6878cc1676cec6eb33f2c0b99c3fcc16dc70b056ce4e12b166afdb09398ddc9cecb9e21a7c03902ab460fc9b093fc78cd110a0eee5a0e54251e74cdf56ccc0b0f9aaf55ec64a016af0fc2b01565104513c590dd605bb056d1e824316e0d9318359ca78d67bf8fb8ee9e01632cb49b89866a9e6bc9f7dcc96c70c25dd2bca06136e5a9e5c927b90790cfcf95b780cc1feee8089795ba4c2c26d35c4265598865a3bfc72ccb1aab813e344bfd0ea9bc374bcc058c9ca9efbd9fbe1c582b0cfbf73de9522f16976821847a6716dd2cc1f78cfe3afd4e7c8b46ad1f526e47cf3e9e52e47cacf11de2496438e860eeae55c19bf590348b4edf9511454f57b792a4adbc89aeb30636cee3633ddb9ee5134ceb9b9011b7713ff2e9e3f33eb5592ca79ce4451c178e43848cf6126d52f9070468a416d2a2375b3b2a555a9cea94db27d35481ae5f665041db0d650278b1887fb10e142bcdef588ffe8a32d79bff21d7b9a0d9953b29c0409054f27042d0fc85f358402eb37c05402a65f244d20293e4f253e04c41d419e1ea4a34eb5b63fabcfe4d004c6cd2c5a6e7332e3baee7c75f43e5d64305c3d9483e01b8f6a4aa0a14dc2059f65a5fa8a90cd7278a7d346e0b4d77a1f8c733e18ff2947a297d5b788995e72afe834910ecf0dd052624239727d9cea765defda51927fcbe41d69c3d0fae71a78eca9b8c54112848dc38bffce96faba0ef70fc31fb0b527a380356af064dee8805dc6ee8d5635be5c8b225e8a2b128ef044f3c8f73f13bd9fe98cce7acdf18c5bd3cc9f16c4ec0b107ff6d6d22aa9cda3c7ec4b5e2258f70ac8882cdb923ce4a55232eac143bc147eb5ca0b2cbd8705d2c42533bfce1db38418d8d9795ea9becae2bce6ac72c3169182df41b178dec43ed0e2dfd911f7b061081c710a343ea51b50d3761f27f7810d04f3bbf2e787cecd92165f1dc7286f009c265201b08a96c1e52b8cc7a994f615b06902e8a21ff7e7c78d65e4e6fa29f646024bfcd3521a8aa32953402854e7505fe2ee9e7b801d77c289bdf6639d299063dca8900c7b16adb8bfd74bbda0be7d7d76e03b82b6c43094a4aa4df340f24d57ed44efebffdf6a7c551ce863fb1e3a04ef547d391f99dfb0d90c3bae38fbc9778cda492258d460a3c0e016ff9c62b6e348f65d3e8a074ec93ba9ffda04e3490d928c25ea65d98f29afa6e760804185416f0ad07181af18b83d91b61c9eb090c38e24670fa35f1fe3fa5acd09e617bcc0542c6902ad812587a11f0762e36e0d4afa2086085769c9517702d8fa8db6ef1cb741ea5b92fe341a3fe85a51197939c62f366f818380e50ddfcb43e3d4b114f0a7c7f3e4cc16ad3b1f9dad3fb316976635641f263bf8a54ad70274c06bbffabc6b7cc72d4c9f618f0051f09b1be88c77c7dbeec524c415bfabec0c39491a1e0572ac5c4bfcec60f77ad89fe7a896bd73b2a601f24e73bd97d9ff877b731015899071be09489e2cf3fd3ec8b5162a0668304d6606cda218f97c0cd9fbed2737b14383a724d0adf4c01dff3224c9e11da183630b885d093587877323e10f51244909c86ca80b3af0d744b7ef539aa591e219cf395d6b0d9a973d22bb6f9306ab46f017f6cbeb62ec7c56d6df4be53fc78fa676e3a22984e8376a34de48ed9b85520e0ac96bbfaa80972b4e8cbacf8c9ae5567d772dc789641fe35663f1aae6160bcea5b0bcc6896686af6f66be035ec2e1db8504ff3ab3ea8153294a133fa7fb2248938fe5e06b7297104832cd4a100d7bc75c11684a255f2a8c185136533c49aba30e3bc8e19394638312c8e0f38ea43d27896fca30c13d02b1ff8f723b3563701385cdd1fbcf9936e1c3ab1444d48a77131b06aba035def351b6be88b1cb0be7d35886447b5784535c225eaa6f9ed0ac6784a1ad53240a453ca1c8e38e90d4e67f0427a40c47dda9a79945399807ea119bceeefd1879d7cd7a4beb25f6b968f252680bd55ee9fe41b06e40b793f8a43402765628ec64ddd78b2bb5ae6d86b50ecfb1202f780bc3061cb43a47e0c5b2872c3e4e3bbba36d098fa7ef143e30470b8f0094335e1c7e23d761d221988e1d906ef9c6efda09f821e89579c0c31b29452e5c32905aa8445f700b7485649c6c2252855c4dc92ebc2c5612f72b22195106f8e05a98d37463dcb74dc5cf1ae112c1720c3f958b993c67c92fffe9e694a6f1d1c273b43e397b000f32264d4f688d8692a8fb7d85929c8266f0634c1c79256fae3853a77c90f32f045342d5a9523cbbd81c5fa140f3139d20dd0ae873b1d90082673efbd0b41a6c4eb125d9bc82105e1b6508dbf76918a88616669b0890fa96db7c28e5ba89b6d1c62cd938e4f8073b108f42becbb6812feac6bf7bcc3d62bc6a5aed4a2bdc878ab25bb4e861c4566448d26bdaf08e1c9976a83f08d1116f9b13dbb0f06a1100c18c37c7e6629d618d014e6a5e249722aba3105f654f1224f2a5961c320bdacdb85e0d0f52c096bb7d88c1b7e182018975b11bbe366d1a1461d08c5aa4b3f70e52d398463cda740f1eab97bc51672474e4b95a9c6fa69c79e4ef8acfa14cdbaaa64f878485bb03a11c9a80c2e0fe9c5e990c2fd471d230e156464dc61577addbe8773cc6b94bb927f3144ea7147adf5e1616b1048e808a0b8c938562155e301f6e3a06c69077cf60a88a2e9ec15e09d16f99dd98926b869d0ba7a5c885da5c4d89334791a079d4b652161a8165ec49aa1430edf37df44709f9343b7817115c7ac772d3ef302c8589ac4f131a2802c096585b64b1c79569816133ce728440270e36db6cd0e41b7776dedb9d02a0f5e68b5b18ab4f03ad72b91e08d62cbf5eb956c0ec4d8c8be3741d85762d25f8d46a1067e31f6c95ba93ededc51f426afdd6d03431bb455f7ddf8e7de0e9af282e925544413d6ae84e340b34a32b810c9778d231360e176d9791540fd50f4bfaea2b1b9f43c4250f43ccada846241b04d5555c3e8589976e67270b856f763649258aac8094ca491b00af2113829a1a81afd3aa96e516811f94592d9b19450c5519423590593e118411b4ac131cda63e0f00d0e17b7245ff6bff9b3e294787375f922b4098d92b9f228e0f737b1248521a7d276614bcf663adf369cc469d27b0d74a5d6d99b1b43daef6fbd4c580a3ed415a6940504ea0428347b9ae44d3dc2b104adbda8dd02ff29ced3dd920ba4455de2206558dd8d599ffdabcf2ffc3cddd1504e717de4f42149b047753bac7442814a4206e36d755dc990a9e22e9f63f9e1f4fdd7f2af44c6dab447299aae20fe6316973a6530c5ddd4d1795a5cb55fcba97ab06f00f4284f50ec343c16620846393efa25a22109aed10296c0aee77ce62a87f8587745f9e05e36d6ad66ae9e28fa045ad00aeae5514db56a9a1a650997cb159343f1302ed9c255289242c61b965ab20ea065dca584a7537ea9932d2b72fd4af391e212fdbb6439c88518b766fd669a9441693fd3df19b57a73c9eb210039b5f6bca259a35ad5642730b290ef9dea9b0cd04a4b68279378a15ee30b5e921375fcad38fc5922e93ddc93b1e620496e8ab2edbb23765e5770f75954a28ef2962bbbb0b9462f4060c63cdbfd9003477d903c7db1059e22a398022bb9c11756a89c4555b32b588a9b01aec0939c0c3f45da8259c6da66d4911101b534ad18fd1b998cb060cfee1d7e5e2ea86a4ac7cb3a5ea9ff8f1477d0d51137f0d3c7e72e09ea1801744bad2d907970c32818f15ae03308b94e1df9963038596d6b7635b39d4337f32d6938c62553294e56d8ec3b44be279e726600aff2ee439c232b7bbff71d91db2cbe931fac9587789d892806d91e3e9a13bc3511befeaa912a8d56b2631ed9204bdd81131b34696484c2ad19f334dd4e144899f0b06d5e01a35f82a3db1ec40dcda78ff699c7c59a096c6a6d02841e1ea3a97b44fa1ea05db6af4e0beeea3fcd27d980d6c43fcda28f767eba19d4f9899fa120cb79ce3185b3ca024504cdba3828be40904e9adb9bc5fd9c47298939ee7db836bb8659ec503c51324455fd5a6d660e4758982a095d81f1865dcc807a3adcc6928989d4d37827dad0eb922cb6a399470abb76083a96d02fea8edaddef5c684101c584195e7eb885ad5116665acd88f43f7be71e3572fb0e7675bfe5a06f8112f375a16838455738ee7eaddbdfa05ebfb61e0aba177517748656c0c07a5d601807963f0c187839b4ae3f4947d213e8c0cbe98eb6ca2e741882587cc75fa5130e13272eed8078b3a88a5f43788e5c63034c48d12128dc3d8668e987a11d26ec7235882e57c68c7ba1b2b1293bd3a1079184e58c014dcdf76f520f0254d0ec6132af571f080d6e5210bb2cd8ebc5164261620ac79c44a53552135e92f16e8ae1575a0abda01c3cac31154cfc252afc914f839d47c5e8c5349ed056667777f8a0e82ec9369f80393c96eab47205f418a4c9fffdc003f8d9e9c7cc704f2b921decd46760bf23cb537160c3c082670852f87d636b5a95dd96b28052879671c743b5b082d1e1362d7f197ea2fc09483e550d700f4b5c04d76169b2ac68dbcb057aac18fc458401aa65aa49bcd4788eed28200ff60d3687009491254618cbf8388f792d2af90410e955b33834731ef6e8d5c89fd14fdf4fbd464010dac9f0dd767bb24cde78765f011aeaaea12f30f33307935051ba262bd251b99dbf9a2247a9b0f7eee9f79bc03822a0b1cedf7910b1827936b19c736d77ef5e5ad24b63e2a8cf52a9de23e7533f6ceb569b65e9391312333372fa30115103e42a32825d327835e792c8c61378d264e647a113b93786a0b7ad8c04d8aba8df3f0567d5c68dd56daff92f11e1b052bffe0b75daf488655fa6fbe055cecd1f867a90a36d1a5853c1a188319d372ba996ea531e72678508cc6ff4e3f3da3c7139b5d930e41463db7bf0d48dfe33f7eed572537110a36ddca137b9769dc1a0c47cff35c119d53deb336948cf71ac5eaf93a539911bba803c47e2d29fe73dd4caa86679addc443c7d149ded9fecdec04034c843675961b82c75593ee19b83644e0fd16ce69b5b129840df7b2092969aaa09c528e4d8b601e42746ee6d6caa2e41c0172d19ce57f6f4b46ae9c6031288b41201f840f6234a3e5d1f6199e2808b3e86dcac951cb1c969a0bc42aad59d77e044550ba7831875a57c9488e9c5de9a67e9cebc448c5a96dac0ed65501fa9384d53997ecf41c78d28a04b6f303b873cc80484df7078827487083ab5b7dbbfd0230e183e94e3f4a4ab731dc75b2d06d08b98e531f4b59be9dd2253e2d91cadfb7d6a68c62ddabdd1207e958e8026425e30c391eb63edf89c4ebb378e875fbcd3ca23ca09c7127f0c6448faf892d965aea0fd69015d72b1415d3ddf83e665d8ad2d9e57a59b75f1d4b73e00ba75200448c7bb0b0ce6547bf31faf1c14c3c9ff5dad3b7f9f90dd46e3e1b7560b3b2090b7e4105da8550d670ed876301a88b6aec3b005f2ecc2db6f2dbb95511b42b44a75aa74f7feb54315c57bdfdbd0624fb65d29ce586e64852b4f6884163abc933990f756c06e2da833592602d22ce4ca01e4fb726dcd36479ca40c81643243f0e6dba9825271569a49004696c6a6a33438ac4dc7e88dd47068804198ed2e1ae18ba693557311081a0925cd2d2a10efdb74a69febeeda5863f03bfa8b2459fb34c09f3827267e2921292b46f1a665c1281cb20acfd418925947ed6a2dcef5d484c2f4fdbf74bc0da723e59c86a84e6cd6290f1044da8d571bbffc8985e073644f48dd18edbf6b05117bbb149f96a4fcacff60e284f71e5f81622345c696d767bcd242d5177828ad7e91529313d4368819ec80b48555ba4bdc1e70c0d466a7587889a002e3b6a7697b2183550515d729d00000000000000000000000000060f17202830373e",
  "result": {
    "0x0024f658a46fbb89d8ac105e98d7ac7cbbaf27c5": {
      "balance": "0x0",
      "nonce": 22
    },
    "0x3b873a919aa0512d5a0f09e6dcceaa4a6727fafe": {
      "balance": "0x4d87094125a369d9bd5",
      "nonce": 1,
      "code": "0x606060405236156100935763ffffffff60e060020a60003504166311ee8382811461009c57806313af4035146100be5780631f5e8f4c146100ee57806324daddc5146101125780634921a91a1461013b57806363e4bff414610157578063764978f91461017f578063893d20e8146101a1578063ba40aaa1146101cd578063cebc9a82146101f4578063e177246e14610216575b61009a5b5b565b005b34156100a457fe5b6100ac61023d565b60408051918252519081900360200190f35b34156100c657fe5b6100da600160a060020a0360043516610244565b604080519115158252519081900360200190f35b34156100f657fe5b6100da610307565b604080519115158252519081900360200190f35b341561011a57fe5b6100da6004351515610318565b604080519115158252519081900360200190f35b6100da6103d6565b604080519115158252519081900360200190f35b6100da600160a060020a0360043516610420565b604080519115158252519081900360200190f35b341561018757fe5b6100ac61046c565b60408051918252519081900360200190f35b34156101a957fe5b6101b1610473565b60408051600160a060020a039092168252519081900360200190f35b34156101d557fe5b6100da600435610483565b604080519115158252519081900360200190f35b34156101fc57fe5b6100ac61050d565b60408051918252519081900360200190f35b341561021e57fe5b6100da600435610514565b604080519115158252519081900360200190f35b6003545b90565b60006000610250610473565b600160a060020a031633600160a060020a03161415156102705760006000fd5b600160a060020a03831615156102865760006000fd5b50600054600160a060020a0390811690831681146102fb57604051600160a060020a0380851691908316907ffcf23a92150d56e85e3a3d33b357493246e55783095eb6a733eb8439ffc752c890600090a360008054600160a060020a031916600160a060020a03851617905560019150610300565b600091505b5b50919050565b60005460a060020a900460ff165b90565b60006000610324610473565b600160a060020a031633600160a060020a03161415156103445760006000fd5b5060005460a060020a900460ff16801515831515146102fb576000546040805160a060020a90920460ff1615158252841515602083015280517fe6cd46a119083b86efc6884b970bfa30c1708f53ba57b86716f15b2f4551a9539281900390910190a16000805460a060020a60ff02191660a060020a8515150217905560019150610300565b600091505b5b50919050565b60006103e0610307565b801561040557506103ef610473565b600160a060020a031633600160a060020a031614155b156104105760006000fd5b610419336105a0565b90505b5b90565b600061042a610307565b801561044f5750610439610473565b600160a060020a031633600160a060020a031614155b1561045a5760006000fd5b610463826105a0565b90505b5b919050565b6001545b90565b600054600160a060020a03165b90565b6000600061048f610473565b600160a060020a031633600160a060020a03161415156104af5760006000fd5b506001548281146102fb57604080518281526020810185905281517f79a3746dde45672c9e8ab3644b8bb9c399a103da2dc94b56ba09777330a83509929181900390910190a160018381559150610300565b600091505b5b50919050565b6002545b90565b60006000610520610473565b600160a060020a031633600160a060020a03161415156105405760006000fd5b506002548281146102fb57604080518281526020810185905281517ff6991a728965fedd6e927fdf16bdad42d8995970b4b31b8a2bf88767516e2494929181900390910190a1600283905560019150610300565b600091505b5b50919050565b60006000426105ad61023d565b116102fb576105c46105bd61050d565b4201610652565b6105cc61046c565b604051909150600160a060020a038416908290600081818185876187965a03f1925050501561063d57604080518281529051600160a060020a038516917f9bca65ce52fdef8a470977b51f247a2295123a4807dfa9e502edf0d30722da3b919081900360200190a260019150610300565b6102fb42610652565b5b600091505b50919050565b60038190555b505600a165627a7a72305820f3c973c8b7ed1f62000b6701bd5b708469e19d0f1d73fde378a56c07fd0b19090029",
      "storage": {
        "0x0000000000000000000000000000000000000000000000000000000000000000": "0x00000000000000000000000120bb8cb4a01637a773811ba45b9afd80171a08c5",
        "0x0000000000000000000000000000000000000000000000000000000000000001": "0x00000000000000000000000000000000000000000000000006f05b59d3b20000",
        "0x0000000000000000000000000000000000000000000000000000000000000002": "0x000000000000000000000000000000000000000000000000000000000000003c",
        "0x0000000000000000000000000000000000000000000000000000000000000003": "0x000000000000000000000000000000000000000000000000000000005a37b834"
      }
    },
    "0x20bb8cb4a01637a773811ba45b9afd80171a08c5": {
      "balance": "0x1780d77678137ac1b775",
      "nonce": 29072
    },
    "0x1585936b53834b021f68cc13eeefdec2efc8e724": {
      "balance": "0x0"
    }
  }
}
