{
  "context": {
    "gasLimit": "5232723",
    "miner": "0xf4d8e706cfb25c0decbbdd4d2e2cc10c66376a3f",
    "number": "2294501",
    "timestamp": "1513673601"
  },
  "genesis": {
    "alloc": {
      "0x20bb8cb4a01637a773811ba45b9afd80171a08c5": {
        "balance": "0x2a3fc32bcc019283",
        "code": "0x",
        "nonce": "10",
        "storage": {}
      },
      "0xabbcd5b340c80b5f1c0545c04c987b87310296ae": {
        "balance": "0x0",
        "code": "0x606060405236156100755763ffffffff7c01000000000000000000000000000000000000000000000000000000006000350416632d0335ab811461007a578063548db174146100ab5780637f649783146100fc578063b092145e1461014d578063c3f44c0a14610186578063c47cf5de14610203575b600080fd5b341561008557600080fd5b610099600160a060020a0360043516610270565b60405190815260200160405180910390f35b34156100b657600080fd5b6100fa600460248135818101908301358060208181020160405190810160405280939291908181526020018383602002808284375094965061028f95505050505050565b005b341561010757600080fd5b6100fa600460248135818101908301358060208181020160405190810160405280939291908181526020018383602002808284375094965061029e95505050505050565b005b341561015857600080fd5b610172600160a060020a03600435811690602435166102ad565b604051901515815260200160405180910390f35b341561019157600080fd5b6100fa6004803560ff1690602480359160443591606435600160a060020a0316919060a49060843590810190830135806020601f8201819004810201604051908101604052818152929190602084018383808284375094965050509235600160a060020a031692506102cd915050565b005b341561020e57600080fd5b61025460046024813581810190830135806020601f8201819004810201604051908101604052818152929190602084018383808284375094965061056a95505050505050565b604051600160a060020a03909116815260200160405180910390f35b600160a060020a0381166000908152602081905260409020545b919050565b61029a816000610594565b5b50565b61029a816001610594565b5b50565b600160209081526000928352604080842090915290825290205460ff1681565b60008080600160a060020a038416158061030d5750600160a060020a038085166000908152600160209081526040808320339094168352929052205460ff165b151561031857600080fd5b6103218561056a565b600160a060020a038116600090815260208190526040808220549295507f19000000000000000000000000000000000000000000000000000000000000009230918891908b908b90517fff000000000000000000000000000000000000000000000000000000000000008089168252871660018201526c01000000000000000000000000600160a060020a038088168202600284015286811682026016840152602a8301869052841602604a820152605e810182805190602001908083835b6020831061040057805182525b601f1990920191602091820191016103e0565b6001836020036101000a0380198251168184511617909252505050919091019850604097505050505050505051809103902091506001828a8a8a6040516000815260200160405260006040516020015260405193845260ff90921660208085019190915260408085019290925260608401929092526080909201915160208103908084039060008661646e5a03f1151561049957600080fd5b5050602060405103519050600160a060020a03838116908216146104bc57600080fd5b600160a060020a0380841660009081526020819052604090819020805460010190559087169086905180828051906020019080838360005b8381101561050d5780820151818401525b6020016104f4565b50505050905090810190601f16801561053a5780820380516001836020036101000a031916815260200191505b5091505060006040518083038160008661646e5a03f1915050151561055e57600080fd5b5b505050505050505050565b600060248251101561057e5750600061028a565b600160a060020a0360248301511690505b919050565b60005b825181101561060157600160a060020a033316600090815260016020526040812083918584815181106105c657fe5b90602001906020020151600160a060020a031681526020810191909152604001600020805460ff19169115159190911790555b600101610597565b5b5050505600a165627a7a723058200027e8b695e9d2dea9f3629519022a69f3a1d23055ce86406e686ea54f31ee9c0029",
        "nonce": "1",
        "storage": {}
      }
    },
    "config": {
      "chainId": 3
    },
    "extraData": "0x4554482e45544846414e532e4f52472d4641313738394444",
    "gasLimit": "5227619",
    "hash": "0xa07b3d6c6bf63f5f981016db9f2d1d93033833f2c17e8bf7209e85f1faf08076",
    "miner": "0xbbf5029fd710d227630c8b7d338051b8e76d50b3",
    "mixHash": "0x806e151ce2817be922e93e8d5921fa0f0d0fd213d6b2b9a3fa17458e74a163d0",
    "number": "2294500",
    "stateRoot": "0xca645b335888352ef9d8b1ef083e9019648180b259026572e3139717270de97d",
    "timestamp": "1513673552",
    "baseFeePerGas": "0x3b9aca00"
  },
  "input": "0x02f91d64030a80850ba43b7400830f424094abbcd5b340c80b5f1c0545c04c987b87310296ae80b9012473b40a5c000000000000000000000000400de2e016bda6577407dfc379faba9899bc73ef0000000000000000000000002cc31912b2b0f3075a87b3640923d45a26cef3ee000000000000000000000000000000000000000000000000000000000000000000000000000000000000000000000000000000000000000000000000000000800000000000000000000000000000000000000000000000000000000000000064d79d8e6c7265636f76657279416464726573730000000000000000000000000000000000000000000000000000000000383e3ec32dc0f66d8fe60dbdc2f6815bdf73a988383e3ec32dc0f66d8fe60dbdc2f6815bdf73a98800000000000000000000000000000000000000000000000000000000000000000000000000000000c0b90a2015265e09df48fdbb4d25a903611ab26033165930ce5ee140d3c112ce36b59cfdedb85fbda39a2774265af592a87610fba65391a92ac97ebc0f1b599809d6f56594d4cf93c2d9c5457edc684bc22301385df82a2e714d067966634865e0ec4c4085bdbb066338b0cc4a75302272360bbd4cf3e41b754d30962573adfcc2d0d5c7def9424572703ab38ec77dafa6740aa67892b2447f94b758a1f92a5321ff7e39e588174f941b645be3a34715d49bf38c01fd15e799f8cc52d2675a739be2dff51e8f6d4feb7d04c3662e50286d9a109169d25a860f6564dda751e30d159f995260168d18c16f7797769467391ef30763b62401bdca0a316d25ac41e205bf0663f476a7a3ccde674135469d56cbb7b2e6d66da1b38192f8155d2195289aca181c956054810115c4e4766dc5cfb5cac05a7e0d654ff700fedf4e6bc6ba4400fe8a43bdb1139ee7ecacefe1be802455465c6c3f77355cf08b64ac5f6bd0032ba011a77434a21690a769e48dfa379726c757f6b64fc39e454ada5a88b17dfde181caa1f9d7cfce81c351ebe8c45a42ed53bf8ef75d3cf79ee01b7c1144becc69f11eb0e7a8c0f602f1c3d8534c5b36d17f05652d022dd67eac322964e2b6e09f07229a93ceaf5674426091a54e59ab18a6f6003a4a65bde2ad781e2b06ccfafdf62a75579cf3b34511a9bcdb8a0e4a593e8ba6e968412400d5b0bd7288983c463b16a37a3afd2691136fa59613fe5d52fa105be06e22feed475b76adeb7a735b2df574944f0cd82257bf240d5fd098b6baeed96d5d414ad2a2401f540dff4577c1c29548e66f3253b0c41173a9ba144bbef9315db6f992d87af3f392f69dea657ca569271e0b725e970edab865a0c33f3270ffd50359fd357955e00bb97619481409d5f018b719990e425e8678315146d77ede6c293f47e45cc595dacc9fe9a0f2d293113f512f179598ce4b29494701d92481d2cec8ae2f257d97049bdd8d577e810dcaecf24e884f8691d8076d42ed3c3c42b286237f9194a169b6383a332eb13347c7dd65818224703ce3e16d6b1822e47110642fb5b3b0a4784ffdb5bae7b3388fb84aed2d89e6221fa59c358ec4d936951598e22afa74dfbea412952f6e27f1f79a2e4cc76262e0a44bee442fedceb9dd0faaea099c6c1474abd9f80f9de17d5b6278dbedd89386c8bde061fd482b9761d31fd1c9e7cf5433d7e6b864e994e3ed94fbba4e4fe6fd3e92dec5b2d620747663991597c3e49d93698ae779660bb1df45e8ae0ddfb06312ebe9daa299cd0773d5d16b6ba94af05f833d6bb101311a13c9808d58aaa724af619ba59379e40eff798b09bdd5e9b8cea075ce2d8ee1666d2665f403677db0a8382081a0684d7adbed12a404dc34875d8eae71c6f6f2fa3d94302a6f4840fa257ccdfb8672dc845b3ad593ba5e7d0b72947cffda3a3f6ebe89abb1d147e2dc859b3fa2166b579a679b2735e4dc432bbacfa452252772c590195704b1fcd02942a32ef3909160e5bf2dd2054c955106ab070e082e5e844c86a4fc20292a132b4f2250a0bddfd047bfc0b1e93132c69f5185f5ee3f0cd5f8e866442d46be5237feb03aa4b54fb42cc7fb6b0260b345bccd472b009bb07c1139e3d35c69b1095ce24b9d33f70c705c1361d46e637666ac9b17473443768a362779b6b5fbc2ffdb4d420df56fe5662dccc8ee278531557441e4ad3d577a70c9b4ea5ced34eb08f617890a204495a05cd8190f4847c62cfae725d37a62daf6bf0f4bb87a520a0e686ff79e8c0b2a11cf54f0ee2576d9ab2cdedcb2d85040e0000ea95cf5268cdbd9bc86c3e28deb26e3611dfa12149d5afb986a8d96cffa22770ad1efdebd5a757bfff8f8fd83977d6ae71c381ee732d82ca0c2964898e3da0673608979d833c4a4c4a92dd844066fb19d9465f4bf70218a47146c8802dff58391c0a3bc721d8439d64ad9458e84812a6caf6cef0b07f1cf349f13859707da283c4b2da06f7e247388a0b6685091a544d9e541bec8c598f5351db9bdc978f063d70696761a58afffd11bf13ccf08ce8807564200c12fa04f7f090ea7173f69fe300b9c6f914ed8dbf63f83795eb4583ea2ede0f13461b030ba056df1b36e88940f33bb90c7267db29c1986f11d51b5e49965fb7ad3a62f1506d846ccedf4569f420bedd105b34c9cdc783a83a36d2e3d18fb95152b774b7d3d0aecae804f74b946d6fb3b07ed8fa3339f92546454cca532e8b2e8ca69dbb09cd96323ffc0f4fd3cb93a46a62c88577ef6bc53708e80a89fe44518029c70c6bfdab0dbf003c8f0d211c3e209f89b30c793c1ebaf007b790bc58a1d15574fbf082bcbd96ad9c345b2bd1346d9eaf8e488dcbbc521a9092fd17a2ad60c030bdd6351532067ffe09966d4c2b605c6b19a8bf64df0b3419435f9951c0a36cf0ecfd6eedf35619bb5f043520816a5acc437a65ef73b11d0c483dfa7261d931e53cc64bff10ddfba260b0d622c3bd38ed43625b453865f33052ce555d536d75edb676012d5497e073818fabb42b996613612231ed8c577b24a608d5216106d3f30db46c3b2c1f0d6f3730e56e198751237c52171e676792f14dc9981b14c8a6de932e5791611fbdef680d6975bc81b64e2da9769910dcc79fe8c375586cee6dd5343c43db5908b9809ae820fbf9f303bb0bc790da3e09f4e69eccb009cf98a65b7e2a18123f8a2f7dc925c12cb2241d7527944a11b3c9d39fa56f086bd437d46cbdf72790f2dfa1033aed92cfc608627e14cbbde7d5791efa693f22c67781e7efe71d30a147f455c884c9cff8170c392412a99c56866494a1b8d8f3cb93ece6cad05b9b267ffa185232853e57e646d0c8c25a47547a28f58aff90da4ba3404df064158caebd49547cbf048ed6b1e8e72b8516ddae8fff83fccf2599a93b46a1ceacd7b5841a882be7e56f6128a6d50ee7f89c8ed259f31dc3468f4f18b5a852080fc238f7a6586c44ccfa1837929c011c83d1ddf906256e03414d97ae5c85c1c2e939b7d02487efc7efca7ec35f044772ed3df56228f2c50461927e9149350849336213cd602941069119556237bd144f1fb8be57a29c602297c5cf111c2eb246106a30bdb5b4e043beabdb59ad494ee1385b132f6e8a44f9f2334c6e9f7f4d626c9ac7595a3e8bec665af3259313020c4ee2a8c446e01b5dc780cac22555ee2612c176edfa6825248ea7985ad7b418ae7bf7ef43f1e538d9dcde0510ef36ce7dee4088df43e4133ca23af19c03e02834bb6aff29aca247c615a552a3d60873985a6227f6d5759ac6560598adac9ce987a5609bc1bc9f81ae1699f6a2fcc902235c33244f9bc67c7731a0ea3936dfe095c6b94755a29b987186d40d2d360ae4432f82ec5e9b8d2ac2e35d50c1d309c658d81ecc965cec0dcc4d5f8625b6f5e5e59cdf485f654f56d4401d3867f2df215769052c1f5b57a604b370583e514b0df7c1a14b48442ada890014a6d4defc5f01e70fcfcd4dd6bda05955ad4bc9f9f46db91bedf2f44abf31149cff76046e3cfdadff7f34063eead986cfbf1ff6d3e56fe3a5af33cea69d6929b97f946ce8a6acdbb966b2afa1ac3de597574ccd589c510861516f371c0d0b85187b49fe45b518c78846ecdad72d3b4249301bc30a1e81c34c459e06171cf52d7b911f338ebfc5e2dae6fa6c9b894de191d31ece9978402c04be0bbfe30c3d08f499a9a893dfa06ff4d12e9669d48d5aef5f58ae127b0165b33514f25441aed7bd1ca7ede4ffc515995ec651b4845dfb1f87387f7318f0e20419b56dc5263c64d6a19b9e601d114cee171b8288b78be4a47246e2392c6993ba21a6ab68e9022549c37fa60d6d5c7ffb66d15c571b27c1e3adf76279ab2d05bbb263139a9d941445cbd3743f543f4fcbc80f369fba4faf1d281796620915679c36ea98cfa189761de616539724d0adcdfdd586a6b87c12eab28b29a8fafafedc4d8c09ab486b41d6096a99f48a83195c90bcbb544479f5efa8297461b429d29e279d583ab0924302e10d1728eb7107506694ae9935ae895219e0354c1e1c8a8c3d96530e7ee249ccef75e1d9cb853edde9db98449474d336165e1cc536b98a51c8bfb2cb3766f5233f03c4481bd44b7091857c21103eb9f780302c0caebd521a9fa757888b89aa0fb48fbdd33ebac5d18fd9e08185f3adecb688831e49245cb57c31bc40f6e40af12a560407a77ba330f4dc8bb0bb8ea31382ed42620179f25e380a87aa80af98c91675af38a219844a84755a4914f9c08f386893fe34e3c6eee93bd8c404d40b4c0daeadb9607b27e0f0f5281ce75d947f49c5c3efd7d1d6d020e695624d920cedcc80a0ae30db5f047dfbb06d6b94667c24dec5ef949eb43aa94d247938326323715dfa0a41307270048ffbf2c43c3b8891ad805bdb5e29c1ea41103319c813e08d772f1ff141715a751712a6ef6cfa969fab6a2ff2046113e9879eab1fd7a8f1036359c7a807b6f7ae5392587285018e0c3de0385083e48dab19c4d9d5200bcade0b3d3151c54bd8fa6882830a68dbd47c578ad98e7534147340f40d7c2e5b4e76810edd66e486185cb50d20da75b5aba28bf7c9dabf0d7c3ef5ff1c37273c84d68d7da11bc9c3387b9f8691cd029849f2d3c5d51709b40f10df801aa696199ed44cb5c05cdd42e968c86ddb73351e68e6b126aca3ccb8b9b078ef4db1095580fe3c24bb1f44708c0817f1784136c2dc3fe6292d75e2cf058ea9e2b8ff1f703660e893623d065ab633164ac79736602424c4f575e431e3626643bd59dc602c4300dfa3b3ec70cf1620ac7374f9312a7d524f4135f238cc36b15cce1ccc612f73b6859d383b9b8edf751def275861e6f3255d62339f3954404c3e401c5230ae8084d18d2a7df9047ef2c2ab1ca4fa7803aa3eb9749ab42718a1671925026053eb0624ce69edb5f41d335129c8e80e2715a3ec8850be525e3f14ad7fbf0b1d1919ff420479f9af376d42d81798677b7980d6de202ee3e7693468ad76da3848458e41fc8172182812b8875004faca987362f691eb258845e198e9daeb1106ad4a171d39e93bc7a695d21f020228444b23d0f88895f6c63c127c4b55f2a87a8cafbc67cb3ee7d968d840e78eada29140274418dc39a14af33e8625a80cc0d45b2f8cdabbc9b21039b7441e1fddc7a46d220c864300cf5e98ce575d6b2e52740725d4a5f21b847503f2db8ef23f02e6fe10b60002cff2e30cb27c657a8c23c0ac80bf2a92eca8ef0c700d87e341315ab0d0457a1fcb4c1fc0b510f374eacb6ffa56b9085822b904687871cf5512dfdb9bc72f5217524a0d1a6892542f715fee421201b08be397668ba89bfe02f51ebabbe179a41771cf3648095e6023dc9228311ce4681e715d676cec3eb9aabc37ff4b48c05581f3fa1f0a40976b30431e2d7929bfefc08754e48acfa7172da61e0c046e352b9f05241f72af32c55a799e75e862a0a70b0d76f7cc5f7c7905461d8efa3c752b3420a7a9308e8f7ffa4cfc137e32a4239158d44002a9aa2b04a11378cbf7749ca03438e9f998d3e1a6b9b4247afb03dd26cd125ae34ef9af6439caa631603b056cdbda1b031507f3d98ff21092dc4028875125d10c8097b1434f743e4ed4d730bd37a44406982e8bdd9fa4f4b83993e1a25437942f08995f69b3e09a858cbbdce60e361fddaea39ab5697e70bb079d12af1231a1497b751fa05dd134b744159f41188cb6c3eac47e965ce86785ca113a761de8faf8ca6add30243a82e08b14d732141c5a0c9521375c824c4d1431a442742cc3539e6918a5bab992d300933ac9166ba650e26b3c86afee4f040b210720217748cb7d623dd8b77f8a15023af1a9ef1cf3cf98f3ac3d2553a4ae1e94e763ab5996689ca8421b29641ab0a565119c6e8e71d23ab2bf6310922ad0052e3ea4b2e34cfa568bce32048740678e0b75fe4342f9e66dc810c8ec8e91abc4c32c3995c9fb85b96146b206170155935e3f09bc4c2a5eef6bce0b20711a90273fdb365c3962ab5a02bd10d8e1e850f610f7bac4b51700b15b056f95e5e384a875ea244d99c0d69ad422f665d2c0995e27f63832923222e3e8aea6105da958bb375fc676f06871f3438dc629eeb1d25b02d60f8bb0ee44425048615fda8cb1036698c25c49938f15b8796e7ee18674a4d5f1874b27aaced16fe34c4ac17962fea35b42bdd7112fc331f4908d33d9a6f484bdde69e327607f325aab92feef79965ad7a4a2344d0c457822a2f4654ef179627a97bdbabcd7caee42a1bab2376e1b442d79f140682a6b57bc72d4d2fea8e937e40ef3fde1d5f8f028ac41c5d1e49bc892f197e234a523705a32789793513c4005127097cb060aa0d670e5b76725179cd2f7c89163e021cbd33fa8de83d067005125626de79b115be31526b2551c1a7f19de6409d5cd7479bfdac4d0ded51de57bac62ba496241195a2f3cb39e6eb6b0082690e9cb8ea2abf09b48bcccf4584cbe3d1670e68cf4eb1c1c006b561a984c8e13567b6a87d14d70656c53241d04b4f15c7717b4718be8bad036c05b18a45372b5c7ee85756ad33bce3a095fe8c3399ed1434a53f0674a69dbe69961525731715256c34586def49ada7c7222e49d178ff35275580c42d37c882a18a0596623caafda138d7d8f98b16ee4720f08b2e79a689ce52443f93b04dd1c73607b977eda4b074957bf558ef05111dd253133e11fcacbd74dddcd898c4a47bf0be1d2aaea62c279540413fa213cc0c30f0d4cca1dda48bbf11678c91491aec7d1212c9bed301422465bbb72ae9a71ba1d8d9623f08bdd57b17e2fe41452d1c0a77a755ab10c9f23d282d2d9cfe3d2e4aba2ec2ebd95d1dde8b64fc9dde90c1131b06c62d16aa1be298ae0e234477a1cded831c6d6525755fd0f287c5cc961d2f7d380f59fd81e59053480d2a47aca7af77a5df38b87563d04115dffec2e9fa69a4e32c9e8f4841aefe773270c73f55838a2f5d7b4625fe161d404b4e43b346d64b7c261d5ecd830b61751526f9b1157a2211f0d70459223554f863880e08db142b7fd0c69b67e1183faed8f7a11d38c159e955d6a63095697895fec38b5a6dad97a03b144e3039447591bac03571e5a2f9ca59d0164a3b7ea1034e2ba4f669348c0d10873ba298e30fff225e91e1088ae2fa4a805a30acbdee453f39280a57393960fc59448402336e37ef8e7ff9c2dbb1bc1206190b1d6106e91d599f93299705d85a66028a29f690fca917dac88d155d191c05b4388c25b0abd6d8e2c6de434e9276eb8aa02fbbfe1c188108631bc5b7917b3659da30da373c094b4a3a0c7d8ead7e97dbb97c307518cb613a71b1899c7f102c3687d8c7a22797e2f3ce369ac37483dc8b4526be8853e2b2da7aed01695f1df9014fd47527c2723c77cf02076c59c32f9a8353ba5e7883986eef009ff4df961793425ecc01ffb949f9ba619ab0c444233551a058989441da57f0a07048dcba45bfee6f1ed65514f5ebf8d6332cea6c3b46dff88c70753d6cd8c04ce5ce8eda62815c9404899d285a1134f476368e93a45daa8f554dcc57b3b6aafc4cfecb382d8d649a0af8e126bfb6737e50e1f8fe74f6c2fd981a40fa33e56a7b23fa216bf0219b618dc4906869769e8c676478634d57540e165fd91a8c0dbf3c1fd8dd0204317b38bd748d9d1adbfdf43fdc255419974b317d7e4f80388e014790d6f5c5b573f7b34bedde11bdbbab089226a52234cee331284f4b7d808d5df63b6587788acb28d21da3fea162478bf73e8eccc8f1f658c12d1eae4a3832576d50d97b04d1922dfea3ab0922208b960f325b4bee76c1efdccb3ec381a9c09209d14312f861cbb2f6b0d6e8051a283971794d1a330c8adb0d280feaca675370ec0eaa0144836adcda7333230501fcba74ce464bde94c4fe0c93375506df89ae1a62ab2a13723c726c26a320b149350bc3a45112e68ae7898e06abb302595b0981be8f1082095f0d7342b4c6e8035b9746fa331ac4799cfb652d286060b5aee0eb0350dd73de2b0a626585c9afd7850c76dcb68a529ab5461dcffec0a8223a32b79f16b92f901b0210861e25a94e21e22fdc76ba13d7cd430159e69bd7c995ec8e7e6519f0dcce63ddb7f5b860b58e4ab2ab701116d4200ec9a46d804857a67eed653b7583e60d0912c2e3f9e7286ba9f6284f26a0f6cc2525c73172ce253c276e642717d62d1566c2e40df48c3f195b63757de3ab839ccfd957df8b0cde3c9b1f0c7e4d4c6212cbdb7dcabd3258b87a0ed3fde43aef8f0212bc5c7d521260454df7d3bd2a31a2425a070985082d6f0389218681522a3019e154ba89c0373787c3850e582a78c9140149ad66b5bbae0af45239705d0325e5ace521e9a3f70743578cb908614b5b1749eafa7e29342d9cfe7e1cbd40a8272ad03cfd64af6b0be4991c6fbe9757deb67c77b156c480cabdc3c8e2b13e596cf7e6088d3ff917992297463bf6bcab2a137d915aac934f40ae760c57ce7099cc49178d1595602316d508e9259c309c8e7bbfc696077dde5b95b10456be6ce3c6102122ffe681a84575f79784eeb0d9d65e0169c8ec1c29650ffe5bbd3ee7ff228ffba61f184921c43f411d1ff2d8380d478a95f86157154f8831935a2fb586cad84cb8147d977292e7a6bbcb9494932b8f6f769bd588cb5ca8df37f7a680555078c333a66f17103b7cd992d105867934c3e4dd55ed9b3776f0e60f8feabdfedecdebf791aba06a95cd56d195c72a88c079a9c7a87ccf58f9cdcdbace35626bee65948d7cd310d602459d94ad60f3eeb31aa3afd19e43b3f9efd150bc37d2af490c2663e9dc0092725ad6363241bfda8e65d7adb47c147a23dd0243679e241b7080a899511589cbb93005cddc667a4e28dda1f67ba0b6eb6be287dd9a55c66d2fce2ce32298105247982abcfc4ab27d7b0565427fa7a16ea08bb62df2029e8095cf4c1ea06ce8e9e687c44152834d1c46af6fb52290310000c1b30ba809614847fd762e85d952e51fe255115a880996768a536b218147ddb5c0bfe60ec285ce7d30d7914643137386a473c93914c02d19aaf962607a9f30545167503e1c1615ef35bb3ee42c64832e2851195dadbc08e90e1b35ffa6d40ce3375c676b73d6ce1d274d9719678275058ad3dae023e5b5c1ed88ab4a4a8be883aa13a42663756bca00a9d5fd7f9a13fe6a564d40510ecc329c050e2cbb804761e2d207ac7557c1f5172365f9bfd5e45cfc28452bde9da91af4b8f80b3e6a4f105406fdbfb8af01d404313252448c9654b846ab14f0e746e891e6725ec2755586a38f6b0c7a3a24b31577af82990277b42fbd2a4f0da09a57ef8263bff88efb0dfcb7c06560daa524502b4a4d27ce2fa153a22e806206e8095b17d5aef20830d81f478ec96669b428d2dc38cef774283110ffd9bc2ab01223215eff7c8ca9e0ac3508575cf6eabfa7c18eaeb3a732a2026d220d8542c7d14a4952326560e4e8f25b42d171c286ea584d915fc66364af5574b2a5160ff84142e2b2a15f8a651ad035f3966709f50f1c9016b27d1cd7c5a546f0b2de86a56828337595559b16cf61d991f27357f5699006b147032cca17f6520ed3d6eb6963965bf442474b9c26c16598e83552b4bf251e0426d25bc7da1c33376d433892b0ad075e7fc2703ffd56fc713ccfad1e14def137b090b3f56c34c163bf57e7cc6e1045e52d63d198dff652429174468df1f63221cfeb8bbe4e662aae6b86a9a7840d67d52d89917d4bc591e0d52e0d196a127dab95333a424098e4c1ae53d4a52ea2c971e3b1bee39efaaf60f5e68f11584e773e573b40643d504fa6d8cf4011f882eace60e3b84e87f48a62c961f41e830d13afa0db752d0a0eddff50c8b77e24af5551401fa6480e6901b17ea652d51ef764aec19a1073e64585c08241e6a2fd38c7ca725bf6ed10ec904b1cb7e51b09020fafc98cd3a4ac877302de49f27029f395e2c6e7df34e83d7968a2edb32a393a336998c66f1dfd93059f60901af69145d84a3f926eb7e51a063dc321d88897b7679d3ec5fb373d798cbc308734636c8493b8fd0c279ccacf06116d91ced2db607d9ba2b113393e8bbdc0d1d9e4ee0000000000000000000000000000000000000000000000000000000000000003080a11161d222c",
  "result": {
    "error": "execution reverted",
    "from": "0x20bb8cb4a01637a773811ba45b9afd80171a08c5",
    "gas": "0xf4240",
    "gasUsed": "0x5c47",
    "input": "0x73b40a5c000000000000000000000000400de2e016bda6577407dfc379faba9899bc73ef0000000000000000000000002cc31912b2b0f3075a87b3640923d45a26cef3ee000000000000000000000000000000000000000000000000000000000000000000000000000000000000000000000000000000000000000000000000000000800000000000000000000000000000000000000000000000000000000000000064d79d8e6c7265636f76657279416464726573730000000000000000000000000000000000000000000000000000000000383e3ec32dc0f66d8fe60dbdc2f6815bdf73a988383e3ec32dc0f66d8fe60dbdc2f6815bdf73a98800000000000000000000000000000000000000000000000000000000000000000000000000000000",
    "to": "0xabbcd5b340c80b5f1c0545c04c987b87310296ae",
    "type": "CALL",
    "value": "0x0"
  }
}
