{
    "genesis": {
      "extraData": "0xd783010202844765746887676f312e342e32856c696e7578",
      "gasLimit": "3141592",
      "hash": "0x2004021ae3545cf8abba1ec97a7e401157cee9e847131e2f4c75ce38610040cc",
      "miner": "0x52bc44d5378309ee2abf1539bf71de1b7d7be3b5",
      "mixHash": "0x651f01d13fb801c602e1544ab80b3bc32888ea40ef298efa52ec3df983b558ee",
      "number": "422908",
      "stateRoot": "0xd914c6440edf9f4a6f997a9b3ecb6e1a9ca2310f74b0b6890c0d0d4a3c28e4d3",
      "timestamp": "1445530335",
      "baseFeePerGas": "0x3b9aca00",
      "alloc": {
        "0x2861bf89b6c640c79040d357c1e9513693ef5d3f": {
          "balance": "0x0",
          "code": "0x606060405236156100825760e060020a600035046312055e8f8114610084578063185061da146100b157806322beb9b9146100d5578063245a03ec146101865780633fa4f245146102a657806341c0e1b5146102af578063890eba68146102cb578063b29f0835146102de578063d6b4485914610308578063dd012a15146103b9575b005b6001805474ff0000000000000000000000000000000000000000191660a060020a60043502179055610082565b6100826001805475ff00000000000000000000000000000000000000000019169055565b61008260043560015460e060020a6352afbc3302606090815230600160a060020a039081166064527fb29f0835000000000000000000000000000000000000000000000000000000006084527fc5d2460186f7233c927e7db2dcc703c0e500b653ca82273b7bfad8045d85a47060a45243840160c490815260ff60a060020a85041660e452600061010481905291909316926352afbc339261012492918183876161da5a03f1156100025750505050565b6100826004356024356001547fb0f07e440000000000000000000000000000000000000000000000000000000060609081526064839052600160a060020a039091169063b0f07e449060849060009060248183876161da5a03f150604080516001547f73657449742875696e74323536290000000000000000000000000000000000008252825191829003600e018220878352835192839003602001832060e060020a6352afbc33028452600160a060020a03308116600486015260e060020a9283900490920260248501526044840152438901606484015260a060020a820460ff1694830194909452600060a483018190529251931694506352afbc33935060c48181019391829003018183876161da5a03f115610002575050505050565b6103c460025481565b61008260005433600160a060020a039081169116146103ce575b565b6103c460015460a860020a900460ff1681565b6100826001805475ff000000000000000000000000000000000000000000191660a860020a179055565b61008260043560015460e060020a6352afbc3302606090815230600160a060020a039081166064527f185061da000000000000000000000000000000000000000000000000000000006084527fc5d2460186f7233c927e7db2dcc703c0e500b653ca82273b7bfad8045d85a47060a45243840160c490815260ff60a060020a85041660e452600061010481905291909316926352afbc339261012492918183876161da5a03f1156100025750505050565b600435600255610082565b6060908152602090f35b6001547f6ff96d17000000000000000000000000000000000000000000000000000000006060908152600160a060020a0330811660645290911690632e1a7d4d908290636ff96d17906084906020906024816000876161da5a03f1156100025750506040805180517f2e1a7d4d0000000000000000000000000000000000000000000000000000000082526004820152905160248281019350600092829003018183876161da5a03f115610002575050600054600160a060020a03169050ff",
          "storage": {
            "0x0000000000000000000000000000000000000000000000000000000000000000": "0x00000000000000000000000020bb8cb4a01637a773811ba45b9afd80171a08c5",
            "0x0000000000000000000000000000000000000000000000000000000000000001": "0x0000000000000000000000ff30c9e568f133adce1f1ea91e189613223fc461b9"
          }
        },
        "0x2a65aca4d5fc5b5c859090a6c34d164135398226": {
          "balance": "0x326601cc6cf364f6b9",
          "nonce": "12122",
          "code": "0x"
        },
        "0x30c9e568f133adce1f1ea91e189613223fc461b9": {
          "balance": "0x8b83c417dd78000",
          "nonce": "2",
          "code": "0x606060405236156102ea5760e060020a6000350463022bc71f81146102f757806303d6d7b61461037f578063086ae9e4146103ec57806309c975df146104595780631145a20f146104c657806312d67c5f146104e75780631302188c146104f15780631ae460e5146104fc57806323306ed614610573578063234917d4146105ca57806329917954146106375780632a472ae81461071d5780632e1a7d4d1461078a578063306b031d1461087f57806333613cbe1461089d57806334c19b93146108c257806335b281531461092f5780633664a0ea146109b85780633c941423146109c35780633cbfed7414610a3b57806350a3bd3914610a4957806352afbc3314610a735780635539d40014610c2a5780635a5383ac14610c3e57806360b831e514610cb55780636164947214610d7f578063685c234a14610d8a5780636ffc089614610de0578063741b3c3914610e4d5780637542861514610ed25780637772a38014610f5557806377b19cd514610ff057806378bc64601461105d5780638b37e656146110ca5780638baced64146111375780638dd5e298146111b157806393423e9c146111de57806394d2b21b1461120257806394f3f81d1461121657806398e00e54146112665780639f927be7146112bc578063a502aae81461136a578063a6c01cfd146113e8578063a9743c68146113fa578063aa4cc01f14611467578063b010d94a146114d4578063b0171fa41461154e578063b0ac4c8c146115cc578063b0f07e4414611635578063b35594601461171c578063c0f6885914611739578063c3daab961461178f578063c630f92b146117bb578063c831391d146117e5578063cd062734146117f0578063d0e30db01461185d578063db681e5414611865578063e40986551461190c578063e850f3ae14611979578063ed2b8e0b146119e6578063f340fa01146119f1578063f828c3fa14611ae8578063f8b1185314611b07578063f9f447eb14611b24578063fc30052214611b91578063fcf3691814611bfe575b6112645b611c86336119f8565b611c88600435604080517fc4144b260000000000000000000000000000000000000000000000000000000081526010600482015260248101839052905160009173ce642b6a82e72147ceade0e72c786ba8eaeb31d79163c4144b26916044818101926020929091908290030181878760325a03f2156100025750506040515191506108989050565b611c8860043560007327b1b436e4699a012cc8698e33c8f3e1c035c28b637d613b346000600050846040518360e060020a028152600401808381526020018281526020019250505060206040518083038160008760325a03f2156100025750506040515191506108989050565b611c8860043560007327b1b436e4699a012cc8698e33c8f3e1c035c28b63da40fd616000600050846040518360e060020a028152600401808381526020018281526020019250505060206040518083038160008760325a03f2156100025750506040515191506108989050565b611c9a60043560007327b1b436e4699a012cc8698e33c8f3e1c035c28b63c68efc486000600050846040518360e060020a028152600401808381526020018281526020019250505060206040518083038160008760325a03f2156100025750506040515191506108989050565b61126460043560243560443560643560843561200185858585856000610a89565b611c886004545b90565b611c886005546104ee565b611c886040805160e160020a6333f8a36702815260066004820152600160a060020a0333166024820152905160009173c895c144d0b0f88417cf9e14e03e6abc82c0af3f916367f146ce916044818101926020929091908290030181878760325a03f2156100025750506040515191506104ee9050565b611c885b60007327b1b436e4699a012cc8698e33c8f3e1c035c28b6323306ed66040518160e060020a02815260040180905060206040518083038160008760325a03f2156100025750506040515191506104ee9050565b611c8860043560007327b1b436e4699a012cc8698e33c8f3e1c035c28b63e99a66856000600050846040518360e060020a028152600401808381526020018281526020019250505060206040518083038160008760325a03f2156100025750506040515191506108989050565b611264604080517f317c152d00000000000000000000000000000000000000000000000000000000815260066004820152600160a060020a0333166024820152905160009173c895c144d0b0f88417cf9e14e03e6abc82c0af3f9163317c152d916044818101926020929091908290030181878760325a03f2156100025750506040805180517ff1173928000000000000000000000000000000000000000000000000000000008252600160a060020a0333166004830152602482018190529151919363f1173928926044838101938290030181838760325a03f2156100025750505050565b611c8860043560007327b1b436e4699a012cc8698e33c8f3e1c035c28b63707378396000600050846040518360e060020a028152600401808381526020018281526020019250505060206040518083038160008760325a03f2156100025750506040515191506108989050565b611264600435604080517fb5bc6dbb00000000000000000000000000000000000000000000000000000000815260126004820152600160a060020a033316602482015260448101839052905173d3cb18959b0435864ff33010fa83be60afc04b229163b5bc6dbb916064828101926020929190829003018160008760325a03f21561000257505060405151159050611d255773d3cb18959b0435864ff33010fa83be60afc04b22637fcf532c33836040518360e060020a0281526004018083600160a060020a031681526020018281526020019250505060006040518083038160008760325a03f21561000257505050611ae5565b611c886004356000818152600e60205260409020600201545b919050565b611c886004355b600160a060020a0381166000908152600f6020526040902054610898565b611c8860043560007327b1b436e4699a012cc8698e33c8f3e1c035c28b63fc4730126000600050846040518360e060020a028152600401808381526020018281526020019250505060206040518083038160008760325a03f2156100025750506040515191506108989050565b611264600435604080517fa95d3e76000000000000000000000000000000000000000000000000000000008152600060048201819052600160a060020a0384811660248401523316604483015291517327b1b436e4699a012cc8698e33c8f3e1c035c28b9263a95d3e7692606481810193918290030181838760325a03f2156100025750505050565b611c886002546104ee565b611c9a60043560243560007327b1b436e4699a012cc8698e33c8f3e1c035c28b6398213db6600060005085856040518460e060020a02815260040180848152602001838152602001828152602001935050505060206040518083038160008760325a03f215610002575050604051519150610dda9050565b611c886000611e0a336108a4565b611264600073c895c144d0b0f88417cf9e14e03e6abc82c0af3f635748147e600633611ec2610577565b61126460043560243560443560643560843560a4355b604080517ff1924efb000000000000000000000000000000000000000000000000000000008152600060048201819052600160a060020a03338116602484015289166044830152606482018890526084820187905260a4820186905260ff851660c483015260e48201849052915182917327b1b436e4699a012cc8698e33c8f3e1c035c28b9163f1924efb91610104818101926020929091908290030181878760325a03f2156100025750506040805180517f5a1230bf000000000000000000000000000000000000000000000000000000008252600160a060020a0333811660048401528c166024830152604482018b9052606482018a90526084820189905260ff881660a483015260c482018790529151919450635a1230bf9160e48083019260209291908290030181878760325a03f215610002575050604051519183149050612008577327b1b436e4699a012cc8698e33c8f3e1c035c28b6318b753ab82846040518360e060020a028152600401808381526020018281526020019250505060006040518083038160008760325a03f21561000257505050612056565b611c9a600154600160a060020a03166104ee565b611c886040805160e560020a6304b47bb902815260066004820152600160a060020a0333166024820152905160009173c895c144d0b0f88417cf9e14e03e6abc82c0af3f9163968f7720916044818101926020929091908290030181878760325a03f2156100025750506040515191506104ee9050565b6112646004357327b1b436e4699a012cc8698e33c8f3e1c035c28b637e853f3d600060005083336040518460e060020a0281526004018084815260200183815260200182600160a060020a03168152602001935050505060206040518083038160008760325a03f21561000257505060405151159050611ae5577327b1b436e4699a012cc8698e33c8f3e1c035c28b63ab2af349826040518260e060020a0281526004018082815260200191505060006040518083038160008760325a03f2156100025750505050565b611c886008546104ee565b611c88600435602435604080516c01000000000000000000000000600160a060020a03858116820283528416026014820152815160289181900391909101902060009081526015602052205460ff165b92915050565b611c8860043560007327b1b436e4699a012cc8698e33c8f3e1c035c28b63b506054f6000600050846040518360e060020a028152600401808381526020018281526020019250505060206040518083038160008760325a03f2156100025750506040515191506108989050565b611264604080517f068e3ef100000000000000000000000000000000000000000000000000000000815260066004820152600160a060020a0333166024820152346044820152905173c895c144d0b0f88417cf9e14e03e6abc82c0af3f9163068e3ef19160648281019260009291908290030181838760325a03f21561000257505050565b611cb76004356040805160208181018352600080835284815260138252838120600d0154815260148252835190849020805460026001821615610100026000190190911604601f81018490048402830184019095528482529293909291830182828015611fb85780601f10611f8d57610100808354040283529160200191611fb8565b611c886004356024355b604080517fa163a32500000000000000000000000000000000000000000000000000000000815260066004820152600160a060020a038416602482015260448101839052905160009173c895c144d0b0f88417cf9e14e03e6abc82c0af3f9163a163a325916064818101926020929091908290030181878760325a03f215610002575050604051519150610dda9050565b611c8860043560007327b1b436e4699a012cc8698e33c8f3e1c035c28b63775f20f96000600050846040518360e060020a028152600401808381526020018281526020019250505060206040518083038160008760325a03f2156100025750506040515191506108989050565b611c8860043560007327b1b436e4699a012cc8698e33c8f3e1c035c28b637517a7c96000600050846040518360e060020a028152600401808381526020018281526020019250505060206040518083038160008760325a03f2156100025750506040515191506108989050565b611c9a60043560007327b1b436e4699a012cc8698e33c8f3e1c035c28b63250687836000600050846040518360e060020a028152600401808381526020018281526020019250505060206040518083038160008760325a03f2156100025750506040515191506108989050565b611c886004356040805160e160020a6333f8a36702815260066004820152600160a060020a0383166024820152905160009173c895c144d0b0f88417cf9e14e03e6abc82c0af3f916367f146ce916044818101926020929091908290030181878760325a03f2156100025750506040515191506108989050565b611c88600435600073c895c144d0b0f88417cf9e14e03e6abc82c0af3f6354e37911600684611e6d610577565b611c88600435600160a060020a038116600090815260126020526040902054610898565b611c9a600054600160a060020a03166104ee565b604080516c01000000000000000000000000600435600160a060020a0390811682028352331602601482015281516028918190039190910190206000908152601560205220805460ff191690555b005b611c8860007327b1b436e4699a012cc8698e33c8f3e1c035c28b6398e00e546040518160e060020a02815260040180905060206040518083038160008760325a03f2156100025750506040515191506104ee9050565b611c88600435604080517fe6ce3a6a000000000000000000000000000000000000000000000000000000008152601060048201527f3e3d000000000000000000000000000000000000000000000000000000000000602482015260448101839052905160009173ce642b6a82e72147ceade0e72c786ba8eaeb31d79163e6ce3a6a916064818101926020929091908290030181878760325a03f2156100025750506040515191506108989050565b611c88604080517f8f00e61a00000000000000000000000000000000000000000000000000000000815260066004820152905160009173c895c144d0b0f88417cf9e14e03e6abc82c0af3f91638f00e61a916024818101926020929091908290030181878760325a03f2156100025750506040515191506104ee9050565b611c886004356000611e113383610f5f565b611c8860043560007327b1b436e4699a012cc8698e33c8f3e1c035c28b63dd382dd36000600050846040518360e060020a028152600401808381526020018281526020019250505060206040518083038160008760325a03f2156100025750506040515191506108989050565b611c8860043560007327b1b436e4699a012cc8698e33c8f3e1c035c28b63aebd65476000600050846040518360e060020a028152600401808381526020018281526020019250505060206040518083038160008760325a03f2156100025750506040515191506108989050565b611c886004356040805160e560020a6304b47bb902815260066004820152600160a060020a0383166024820152905160009173c895c144d0b0f88417cf9e14e03e6abc82c0af3f9163968f7720916044818101926020929091908290030181878760325a03f2156100025750506040515191506108989050565b611c88604080517fc75e8f8800000000000000000000000000000000000000000000000000000000815260066004820152905160009173c895c144d0b0f88417cf9e14e03e6abc82c0af3f9163c75e8f88916024818101926020929091908290030181878760325a03f2156100025750506040515191506104ee9050565b611cb760408051602081810183526000825282516003805460026000196001831615610100020190911604601f81018490048402830184019095528482529293909291830182828015611fef5780601f10611fc457610100808354040283529160200191611fef565b611264604080517fa89713750000000000000000000000000000000000000000000000000000000081526000600482018181526024830193845236604484018190527327b1b436e4699a012cc8698e33c8f3e1c035c28b9463a89713759484939190606401848480828437820191505094505050505060006040518083038160008760325a03f215610002575050604080516005547f321f45840000000000000000000000000000000000000000000000000000000082526004820152905163321f4584916024818101926000929091908290030181838760325a03f21561000257505050565b611c886004356000818152600e6020526040902060030154610898565b611c8860007327b1b436e4699a012cc8698e33c8f3e1c035c28b63c0f688596040518160e060020a02815260040180905060206040518083038160008760325a03f2156100025750506040515191506104ee9050565b61126460043573c895c144d0b0f88417cf9e14e03e6abc82c0af3f63dd8abb6c60063384611db7610577565b611c88600073c895c144d0b0f88417cf9e14e03e6abc82c0af3f6354e37911600633611e18610577565b611c886007546104ee565b611c8860043560007327b1b436e4699a012cc8698e33c8f3e1c035c28b63125935846000600050846040518360e060020a028152600401808381526020018281526020019250505060206040518083038160008760325a03f2156100025750506040515191506108989050565b6112646102ee565b611c886004356000818152601360209081526040805181842060038101546004828101547f38f4c9eb0000000000000000000000000000000000000000000000000000000085526006918501919091526024840182905260ff160160448301529151919273c895c144d0b0f88417cf9e14e03e6abc82c0af3f926338f4c9eb9260648181019392918290030181888760325a03f21561000257505060405151949350505050565b611c8860043560007327b1b436e4699a012cc8698e33c8f3e1c035c28b63fae644646000600050846040518360e060020a028152600401808381526020018281526020019250505060206040518083038160008760325a03f2156100025750506040515191506108989050565b611c8860043560007327b1b436e4699a012cc8698e33c8f3e1c035c28b63b3a5e2556000600050846040518360e060020a028152600401808381526020018281526020019250505060206040518083038160008760325a03f2156100025750506040515191506108989050565b611c886006546104ee565b6112646004355b604080517fb1df3d8000000000000000000000000000000000000000000000000000000000815260126004820152600160a060020a0383166024820152346044820152905173d3cb18959b0435864ff33010fa83be60afc04b229163b1df3d80916064828101926020929190829003018160008760325a03f215610002575050604080517f5548c837000000000000000000000000000000000000000000000000000000008152600160a060020a033381166004830152841660248201523460448201529051635548c837916064818101926000929091908290030181838760325a03f215610002575050505b50565b611264600435602435604435606435611ffb8484848460ff6000610a89565b611c886004356000818152600e6020526040902060010154610898565b611c8860043560007327b1b436e4699a012cc8698e33c8f3e1c035c28b63c9abdb7c6000600050846040518360e060020a028152600401808381526020018281526020019250505060206040518083038160008760325a03f2156100025750506040515191506108989050565b611c8860043560007327b1b436e4699a012cc8698e33c8f3e1c035c28b6386b0aac96000600050846040518360e060020a028152600401808381526020018281526020019250505060206040518083038160008760325a03f2156100025750506040515191506108989050565b611264600435604080517f25fea09900000000000000000000000000000000000000000000000000000000815260006004820181905260248201849052600160a060020a033316604483015291517327b1b436e4699a012cc8698e33c8f3e1c035c28b926325fea09992606481810193918290030181838760325a03f2156100025750505050565b565b60408051918252519081900360200190f35b60408051600160a060020a03929092168252519081900360200190f35b60405180806020018281038252838181518152602001915080519060200190808383829060006004602084601f0104600302600f01f150905090810190601f168015611d175780820380516001836020036101000a031916815260200191505b509250505060405180910390f35b600160a060020a0333166000818152601260205260408051818320547f5c54305e00000000000000000000000000000000000000000000000000000000825260048201949094526024810185905260448101939093525173d3cb18959b0435864ff33010fa83be60afc04b2292635c54305e9260648281019391928290030181838760325a03f2156100025750505050565b6040518560e060020a0281526004018085815260200184600160a060020a0316815260200183815260200182815260200194505050505060006040518083038160008760325a03f2156100025750505050565b90506104ee565b9050610898565b6040518460e060020a0281526004018084815260200183600160a060020a03168152602001828152602001935050505060206040518083038160008760325a03f2156100025750506040515191506104ee9050565b6040518460e060020a0281526004018084815260200183600160a060020a03168152602001828152602001935050505060206040518083038160008760325a03f2156100025750506040515191506108989050565b6040518460e060020a0281526004018084815260200183600160a060020a03168152602001828152602001935050505060206040518083038160008760325a03f2156100025750506040805180517f6a704d7b000000000000000000000000000000000000000000000000000000008252600160a060020a033316600483015260248201819052915191935073c895c144d0b0f88417cf9e14e03e6abc82c0af3f9250636a704d7b9160448281019260009291908290030181838760325a03f2156100025750505050565b820191906000526020600020905b815481529060010190602001808311611f9b57829003601f168201915b50505050509050610898565b820191906000526020600020905b815481529060010190602001808311611fd257829003601f168201915b505050505090506104ee565b50505050565b5050505050565b7327b1b436e4699a012cc8698e33c8f3e1c035c28b635ca1bad5826040518260e060020a0281526004018082815260200191505060006040518083038160008760325a03f215610002575050505b505050505050505056",
          "storage": {
            "0x18b039f13c5f33908f0960616cb3e44029c716366508c54d555096d6e1fa5145": "0x00000000000000000000000000000000000000000000000008b83c417dd78000"
          }
        },
        "0xd3cb18959b0435864ff33010fa83be60afc04b22": {
          "balance": "0x0",
          "code": "0x650105e11e10f850606060405236156100695760e060020a60003504635548c837811461006e5780635c54305e146100ca5780636b1039661461011e5780637fcf532c14610152578063b1df3d801461019e578063b5bc6dbb146101b7578063e62af6c1146101ee575b610007565b61022060043560243560443581600160a060020a031683600160a060020a03167f47a08955ce2b7f21ea62ff0024e1ea0ad87430953554a87e6bc65d777f18e639836040518082815260200191505060405180910390a3505050565b61022060043560243560443560408051838152602081018390528151600160a060020a038616927f9b24879829bed3003de08d5c5d7e18dcbb8dc76faebd95cafc5d4dec8c61a3a5928290030190a2505050565b6102206004356024356044355b600160a060020a038216600090815260208490526040902054808201101561023457610007565b610220600435602435604080518281529051600160a060020a038416917fd0c5cf41ee8ebf084ad0bce53de7cbc6e4693d9b53a4019ca36a2f91cdc20b3a919081900360200190a25050565b610222600435602435604435600061025784848461012b565b610222600435602435604435600160a060020a0382166000908152602084905260408120548290106102865761028e8484846101fb565b6102206004356024356044355b600160a060020a03821660009081526020849052604090205481111561026257610007565b005b60408051918252519081900360200190f35b600160a060020a0382166000908152602084905260409020805482019055505050565b5060015b9392505050565b600160a060020a038216600090815260208490526040902080548290039055505050565b50600061025b565b604051600160a060020a03841690600090849082818181858883f19350505050151561025757604051600160a060020a038416908390600081818185876185025a03f19250505015156102575761000756"
        },
        "0x20bb8cb4a01637a773811ba45b9afd80171a08c5": {
          "balance": "0x1ff0509d9d6821e26",
          "nonce": "138",
          "code": "0x"
        }
      },
      "config": {
        "chainId": 1
      }
    },
    "context": {
      "number": "422909",
      "timestamp": "1445530357",
      "gasLimit": "3141592",
      "miner": "0x2a65aca4d5fc5b5c859090a6c34d164135398226"
    },
    "input": "0x02f91c4301818a80850ba43b7400832d8a40942861bf89b6c640c79040d357c1e9513693ef5d3f808441c0e1b5c0b90a2015265e09df48fdbb4d25a903611ab26033165930ce5ee140d3c112ce36b59cfdedb85fbda39a2774265af592a87610fba65391a92ac97ebc0f1b599809d6f56594d4cf93c2d9c5457edc684bc22301385df82a2e714d067966634865e0ec4c4085bdbb066338b0cc4a75302272360bbd4cf3e41b754d30962573adfcc2d0d5c7def9424572703ab38ec77dafa6740aa67892b2447f94b758a1f92a5321ff7e39e588174f941b645be3a34715d49bf38c01fd15e799f8cc52d2675a739be2dff51e8f6d4feb7d04c3662e50286d9a109169d25a860f6564dda751e30d159f995260168d18c16f7797769467391ef30763b62401bdca0a316d25ac41e205bf0663f476a7a3ccde674135469d56cbb7b2e6d66da1b38192f8155d2195289aca181c956054810115c4e4766dc5cfb5cac05a7e0d654ff700fedf4e6bc6ba4400fe8a43bdb1139ee7ecacefe1be802455465c6c3f77355cf08b64ac5f6bd0032ba011a77434a21690a769e48dfa379726c757f6b64fc39e454ada5a88b17dfde181caa1f9d7cfce81c351ebe8c45a42ed53bf8ef75d3cf79ee01b7c1144becc69f11eb0e7a8c0f602f1c3d8534c5b36d17f05652d022dd67eac322964e2b6e09f07229a93ceaf5674426091a54e59ab18a6f6003a4a65bde2ad781e2b06ccfafdf62a75579cf3b34511a9bcdb8a0e4a593e8ba6e968412400d5b0bd7288983c463b16a37a3afd2691136fa59613fe5d52fa105be06e22feed475b76adeb7a735b2df574944f0cd82257bf240d5fd098b6baeed96d5d414ad2a2401f540dff4577c1c29548e66f3253b0c41173a9ba144bbef9315db6f992d87af3f392f69dea657ca569271e0b725e970edab865a0c33f3270ffd50359fd357955e00bb97619481409d5f018b719990e425e8678315146d77ede6c293f47e45cc595dacc9fe9a0f2d293113f512f179598ce4b29494701d92481d2cec8ae2f257d97049bdd8d577e810dcaecf24e884f8691d8076d42ed3c3c42b286237f9194a169b6383a332eb13347c7dd65818224703ce3e16d6b1822e47110642fb5b3b0a4784ffdb5bae7b3388fb84aed2d89e6221fa59c358ec4d936951598e22afa74dfbea412952f6e27f1f79a2e4cc76262e0a44bee442fedceb9dd0faaea099c6c1474abd9f80f9de17d5b6278dbedd89386c8bde061fd482b9761d31fd1c9e7cf5433d7e6b864e994e3ed94fbba4e4fe6fd3e92dec5b2d620747663991597c3e49d93698ae779660bb1df45e8ae0ddfb06312ebe9daa299cd0773d5d16b6ba94af05f833d6bb101311a13c9808d58aaa724af619ba59379e40eff798b09bdd5e9b8cea075ce2d8ee1666d2665f403677db0a8382081a0684d7adbed12a404dc34875d8eae71c6f6f2fa3d94302a6f4840fa257ccdfb8672dc845b3ad593ba5e7d0b72947cffda3a3f6ebe89abb1d147e2dc859b3fa2166b579a679b2735e4dc432bbacfa452252772c590195704b1fcd02942a32ef3909160e5bf2dd2054c955106ab070e082e5e844c86a4fc20292a132b4f2250a0bddfd047bfc0b1e93132c69f5185f5ee3f0cd5f8e866442d46be5237feb03aa4b54fb42cc7fb6b0260b345bccd472b009bb07c1139e3d35c69b1095ce24b9d33f70c705c1361d46e637666ac9b17473443768a362779b6b5fbc2ffdb4d420df56fe5662dccc8ee278531557441e4ad3d577a70c9b4ea5ced34eb08f617890a204495a05cd8190f4847c62cfae725d37a62daf6bf0f4bb87a520a0e686ff79e8c0b2a11cf54f0ee2576d9ab2cdedcb2d85040e0000ea95cf5268cdbd9bc86c3e28deb26e3611dfa12149d5afb986a8d96cffa22770ad1efdebd5a757bfff8f8fd83977d6ae71c381ee732d82ca0c2964898e3da0673608979d833c4a4c4a92dd844066fb19d9465f4bf70218a47146c8802dff58391c0a3bc721d8439d64ad9458e84812a6caf6cef0b07f1cf349f13859707da283c4b2da06f7e247388a0b6685091a544d9e541bec8c598f5351db9bdc978f063d70696761a58afffd11bf13ccf08ce8807564200c12fa04f7f090ea7173f69fe300b9c6f914ed8dbf63f83795eb4583ea2ede0f13461b030ba056df1b36e88940f33bb90c7267db29c1986f11d51b5e49965fb7ad3a62f1506d846ccedf4569f420bedd105b34c9cdc783a83a36d2e3d18fb95152b774b7d3d0aecae804f74b946d6fb3b07ed8fa3339f92546454cca532e8b2e8ca69dbb09cd96323ffc0f4fd3cb93a46a62c88577ef6bc53708e80a89fe44518029c70c6bfdab0dbf003c8f0d211c3e209f89b30c793c1ebaf007b790bc58a1d15574fbf082bcbd96ad9c345b2bd1346d9eaf8e488dcbbc521a9092fd17a2ad60c030bdd6351532067ffe09966d4c2b605c6b19a8bf64df0b3419435f9951c0a36cf0ecfd6eedf35619bb5f043520816a5acc437a65ef73b11d0c483dfa7261d931e53cc64bff10ddfba260b0d622c3bd38ed43625b453865f33052ce555d536d75edb676012d5497e073818fabb42b996613612231ed8c577b24a608d5216106d3f30db46c3b2c1f0d6f3730e56e198751237c52171e676792f14dc9981b14c8a6de932e5791611fbdef680d6975bc81b64e2da9769910dcc79fe8c375586cee6dd5343c43db5908b9809ae820fbf9f303bb0bc790da3e09f4e69eccb009cf98a65b7e2a18123f8a2f7dc925c12cb2241d7527944a11b3c9d39fa56f086bd437d46cbdf72790f2dfa1033aed92cfc608627e14cbbde7d5791efa693f22c67781e7efe71d30a147f455c884c9cff8170c392412a99c56866494a1b8d8f3cb93ece6cad05b9b267ffa185232853e57e646d0c8c25a47547a28f58aff90da4ba3404df064158caebd49547cbf048ed6b1e8e72b8516ddae8fff83fccf2599a93b46a1ceacd7b5841a882be7e56f6128a6d50ee7f89c8ed259f31dc3468f4f18b5a852080fc238f7a6586c44ccfa1837929c011c83d1ddf906256e03414d97ae5c85c1c2e939b7d02487efc7efca7ec35f044772ed3df56228f2c50461927e9149350849336213cd602941069119556237bd144f1fb8be57a29c602297c5cf111c2eb246106a30bdb5b4e043beabdb59ad494ee1385b132f6e8a44f9f2334c6e9f7f4d626c9ac7595a3e8bec665af3259313020c4ee2a8c446e01b5dc780cac22555ee2612c176edfa6825248ea7985ad7b418ae7bf7ef43f1e538d9dcde0510ef36ce7dee4088df43e4133ca23af19c03e02834bb6aff29aca247c615a552a3d60873985a6227f6d5759ac6560598adac9ce987a5609bc1bc9f81ae1699f6a2fcc902235c33244f9bc67c7731a0ea3936dfe095c6b94755a29b987186d40d2d360ae4432f82ec5e9b8d2ac2e35d50c1d309c658d81ecc965cec0dcc4d5f8625b6f5e5e59cdf485f654f56d4401d3867f2df215769052c1f5b57a604b370583e514b0df7c1a14b48442ada890014a6d4defc5f01e70fcfcd4dd6bda05955ad4bc9f9f46db91bedf2f44abf31149cff76046e3cfdadff7f34063eead986cfbf1ff6d3e56fe3a5af33cea69d6929b97f946ce8a6acdbb966b2afa1ac3de597574ccd589c510861516f371c0d0b85187b49fe45b518c78846ecdad72d3b4249301bc30a1e81c34c459e06171cf52d7b911f32f90081f2c9aeaa1619b111b8402faa8a096044445b5088df4e91cccdaa859b07fcbde90555ef6575fd9836bb90ab58ef4d5d6e57c54b2bfa87f0eea0f8ac8a82d63d09dbd959497d59636c8f7de0119bb7d74a4f77aa8b3bde24086453f8cdd02a99879e5667b101ab823cc9c356375a7b976c174a5e4811f979d8760e7d943a8b8a060439e5ccee9fa205ab6b1d5badbb125288d4a2c34ba17195af4a43ce98a01182f9f78e1f99ebca09019451e0905c8ff08ec7acc66e19fd973d1dd883f361986055427e898c8939718ec629b93d779e0d3672f598dfc1097303aac91b418d58793ce7cef2f8670ba1aea216d2909ba3b90890d0eb4ccfd0018fdd465d1bfacf988b5f7fa093ca55394b452ebcc753e5606b435c1ab3d7b9cd96e4de072a1b1e9a33f92370bdb756f6593ed942d2765c3867eada727b76fc249652f33b2ebdb6add97a75250e99f0195257e2456f4a5b7abada909a5042691e750806c3688eae7b7ad3f70d7348f745a439aef3389bc76a3b2cd5e2e6681c965a07d8a331c31597bc82a40956544a53a70695f89865fb3788686f11a3373c6fe6d95e13c7e4337a2fe9fa85001b06db9ae413df3cd1f039ccfe2f4ad43884c1c6a0354b06464c3bf57c4e50023045cc3e6a0b7a98cb378de70475d5b4c11d96544d1660c12a48d96e02358e5ec1991bc600a1b9f738eed4ab12438f5ac1b8795bda9901f64820508c4033deab5ad49ca2f777f3279b55fc4df4555668034b449c951131f6ad2711ca52763b0fff2c2a67101ca43c6eea9f4d6a23b9d2ff6775c85bdb1f3b44a83dd4eac8641f47b0bb6dde20bcfa2174f6d804603ef3239641820a0ef094949633a673b9886c74141e0e3a33a65869ec104728efbbfb949715beeabfe7816eb388a97f2659729d0024183259769e5a7d7637448e479a3b76ae629e622c08db35ac078eaf1269b38cfd70078caa5eaa9fe3d6845a1eb8a510d731b61c33ca246f9d792ebb7f2df3535adb7d9d447b09e0ed2d2c7027cfb7bbd9ad552e94cf882d7b93e6859aa39b9c707739fce62001d06e633b7e9a9159ba920fb37fba79910bb226d0bf3611b6896fe989ee2b71b3436838ff179f4c25ea068c206717c4b442b32d5f1ad503fe9971ea92ee689387fbfc1075c0f685155447eeccefc6bb3e40aec0759264514916d61dbb9c3de9d34d4f39bdb9a0b1dd6b14b78cda24ced29ee2922782417e8450f988bcfc0d3e2e0b6b20d97c742986f9e391d6c14fe353ae6c524554b0a577e40d896e17b586fed4e55da1baff62dfd2ef7e53fcccd7977781959701f2869f5985b633a0283fb2e902483112080a94a6ed599ac4f37d711ae3a632473e866107fb6bb6c5dbda3ba239bf06a311f6202c5262890b02e96e2d6ed482523b3e65f2fa572faf500c093f397b5ad5371fce256bc9748d14e6979cf36e65b3180d22dba58779d03fe502596dbd993de4a386f34e8e1b3511887b6a57335a4a5d1a372477ff56f492a579bcbf1f7a53563826b0ee428d8997ce372c2c567dec6c209f67ea5f70a8c90cc569a4617e23529295a707487ec8073cd4b433473c208c4b63235e5f893c6f6e75327af5c8fe3d02a25e99977864684647637d43429c8e08e52b763d0f732b280efc1adb8d8eedfe77f41bfd91747061cb7b50c0ae3777037b5abd9abe321905044f1449bbd044c855edf7c69e142ab8338a354bbf3baaa4a1107cda1533464a4d2b071745b4cb60bae2ab15e9714918005044a521e9dc41004768f3861f25a29efbdd8415a3256265ae7e468f4e0fe600695a875abc2d1b529250133907e3de5390aff2af9d64caec59c709da9cb0faf100c8f158a2e0196194b0dc59576f7667723c1fcb9e12a396c141c2162417e1e61c449fa2a4d930662b0d3063caa3ce72b42ef38afadb3fba02f91e82d90306e633c257f823a5b1ac762050afd46c26c90a6d8e7825e1042fd05c36f0393f0664a04fcd18c860bbafee7b2bda0937b84e6f03a801443b99e641902bbbf93e169b2d00ac3e10fc655a07aa6012666e033715ad805582044dbe71a806be076c8c655f1c88cfa94dffa2e1acefe41ed25c2007368891d79d964ae1f2925017d057e0aa63de64025f48a657e76fdcb628d05c270830776f302e923aa1cc02ed83eb8621e1706766bf9a190b38757dfe103958ff2076374e7fa0af443d3bc58d486a9bd1a2bacf3578fb75c4b29a6f7e9b11c3d7b1effcf04db90154e715ca72a9331c5b5bff1b669ab43936fafdb27665b7a9055a7a81f8a9ad48b81c36e44585d337ca537ff79a6fcec673f07596724c0e5759f7b88a604ab30646959a798d2c7c883c51e79319a927167d331db9393e7a732ea1455ce814663584c606dd07de4e9e995851faf5e108273ecd97f9660bf667e0e94db47371d75081c4a46bca58247b8862cf6159dbb26634d82a9215c6de4825c82ea961380b86da216e26166530ab6e6d68efc4ba1ce56bc2083d1f9226b7cfafbb33f549d74968a96f54e63649bd4ceecdbc7d64ca2996039cad35e14456f14966e7c87643a9546949bd59f8a7ffb40df6ccb20946707c6122cffeb684c74096dd9a80b6baf9e863d66eb054de799a153c77546754a290164f81a1c40c982d6806255959428534e79ad6112d28ea8cdf154ad669d331a5b13dad9aea26869b845f58cf511e5f82889e2d78be346b7b9b765484b999d9467ffc5e75da65f7a708beb3bcd01ca87cfdb4cda69bb9c517665609351c2beb5cd8835ccaecfaa6f413ba6d470773287f5baa907e0beed57fc84551726e4070c6de7892165d0d6cad83d9ed4f91147efbb3aa2150cfdfa94f47c53893d6e063ee23f54e28102ba9969251433608085213833ab18b888c7d4c18c7335986a849a50b7e62475dd75f9bb6d47fc577093d4a540c84759ef84045cb9e06c1df6d66633e6fc1ea420738d08f6302a2a22f1d95fc184e1444fa7dbc83ecdccdf2056c0c3148bc4a8363598e764c50d6a10fba56835376dfe97034fae81a9851f49f5354788e89e930fecf2a682e36d6fd92d272165f89e6a210a9fec5edaad23bb7e47c064d350209014a7fef3e08e20d742436d17a2b33f3606add57fdda2dda50297c54e4caf279659fa809f16dec00af1ac9cd3a54b5fb079ac7505b250bbe5a27b931450e2efa70a7d2e77e737138657f489acda54f36b49054dceda8207b6675582881676ee2a4efd626698a9d49ec5a24ad4a058d251b7951cf1da0660ec8029b49d91fa5cc34882618c40ab12ddb647177e9b8a03405c8c475e92ddb4ec72f8e7bc85dc102f9bea5044a06e6d092a767c4dfd32b892c32e7d104d2e976ebd666ce61bc0a2fa5c71f63b645be0a146a2bb562fb51e5fca3b646fb2404439cdc0247b59974239b12653afc11b3f890330a1dd24b2d155c2bc40f0fbcb935d71017596c7f5be02adfa15a6b77407c28efd7cb78b33e04fc20951571972142297a4250b84a7a581997e7fd7fb192ae6047cbf221060fa09756ba33f8ce82f7b29611a8ba9b93babe340bf8ffd01decbd010372515fd2b5034194dbd3f03dcc6a93d4ee300ce9382361bb6bf05595f812dd0f62d41a06fd3fa2da8e951fa4343d52f3b4afac0ff155503ca33fbb7889d687da189daede8a861553a205f3e520f418b943493613eda47001b9d808bac388f8674eb376fd0b399068f9435325f2a2ee5fdfa7231eb69f4c7ca94a83be12ce74f60102525ee448b0f990a54cbb93a461dcf195fd31f6d470a1d4815a4401e5f94a50c089a76a54a934588180764720037aa78426d9ca9c4a18faefe68fb2cdbcd1dae69a7f15aeec3dc866540d6bf3b0d1e00ed84dfc15edfa0b58d8d8b5778f1c83ab6a1fc29c9845203b9368bf9be42286e090e85a8d8829540f4ae947ec31c58c27bc9bdd771acadfed030b106fa98abe0307e17bb525410b1b23f86d2e1a298e53fad8a3f13080e239fe7027ce255011f0e2c32c6d9b1392bb07de3555ffabfab7e48e3755cb4f16146be73c49582d62175124f8c7cab68b6d88220230b2b6a9197b4e21552e10fb9497fe0dfb476b2dd5c437bb5a3166c6c05937af6706c43930d601dccc57f5003ecb68e651358266d25f65367f48ee07a199351ab882035447976764a12dc0b140f5560c70cf19467cd5bac2bad2ff480b2ca9fdd37009ebe5f2543862abc8c9e4534e3b297086dd39ff3bad0743df3d30b626b38d4b6a60cab956a653d3d13c830f7a79ae9adc2cb9744a2e119d345d477221bd71caa5e0eb92ed322db8ed6ea6b20df36c627cb2010d03bd60d217bec246bb75a0a0810cc2d9329e24d97f353889396ef67d0bfe27e3cff0c95378eca5387a1b4ca082386b6142901e4bc7a3e3a917101c1e990be2565bd5cf1d01d2cb9b57cebc49d63c7bf24742756c70ef6734e08c776e9536efc8a810549ad908ae164b79a91cf64c69b45ff44b81f635c65e4ec4152be685b29ecaa55a885f50874b6aeab6edd878ff0b191279d4e8e4146f9bb65308d6b9ad3f7380be46abb870c282c4b3d7bd41e652152794503c9fdd2bfd68b580ed0c4acadb3d053ecca0dd558602ec282bb10aa218692d55bb83583fe4f3fa895b8ec531fc9780180b901705a809fb6f2c4cac72de57ada79cf098efc4c7e3bb7d17ac2d3e477f3988aabe1c5095906907fd6a7466ea2c12262f6127c379e9fcbb09d1be973a0655fa5e099a8b2349f4c8563e777191ba2e9dc827ed6c47e0d9d0d593bc2c3b9e7cbf361402a5ad2e526fd2e4373d963d204f63173fff41da253cf64103e141d34e47aee196bf0c04b07b222ad18c0d2eda3d85f8498e576bed1d2e6a1cb1b3a9f5f5be7d0abd950132e81d7dd3ae257aac9b62b39b84a974289a6a4fc51f40e834a9a95864787bd09bb8264d2c5ba2def05512203388f42cf7bb4d912d32ebe79659884c0790d6544d3d76db242bbb525726fdcb2f195042d2f24e1dd52a83f46304f104f41c1cbf0b61b505602e1600497a5aa3c02a90c29c8a59dcbe7a7d0a2c7caa42eb020d7ab31be1ca82e5f5c4107435ab4b397b23b8d1de8b20ab56189fd9058f629c2a3fa51e4b9af3c38683b7caf21fa01285389ad93a99525ad0bc71e23544facb69a56c2a3f85aee219046cf925058a2b6f004f35a4e55139c00814ebd6d566aa97adcb445513d1882f43abe58ccae8e6b6149fc3a6b104da23a4c7183d058b35f6f2a55b855930aad684d49b94b4b45d38236e9985fab8a83d8972afc17309bb2916dedbf49fe0c10bc965d6456fddc4e0f3ee8879e960488e9412fba494e54883382ff6babbfd70dc6d2aeb4a65ec322344f99cefd4f43611cdbe5aa519effd1073b8c1d6011804b98069d672cd08b174fac4fa87c0ae97406fba03ab0d65ccd5acd6533ee47e71a868a39bf19316473359d6920b9ca0b363863630ff9b0ce9ba60050864afd10b6ead9b4ac5635267b81d523cb58d23b54ee51dfaac1c0c50faa8b7946fec28fe0ed6499fab9ecdcb3306c417449b43956533906a9dd965153ca5c7a7ba50a7ea60e630737e6a4b251f98d793fbf4787c09749a8ceb503499e848afc8eaf77250162d4636483c58e8dbfc7ca2d507592277a2d484eca7e37783539c383722b9ef4550c402a707227dc85b77edd28c0b30f29def87e18c257db2c4ca71f882d1a714f7f760daec56675099c1ef605bc49b1f8fa248a358ddda7f588751b742a3238726141a354596631b56fbcdd7d910fb5d26b82987eea809fc9e252a54a3e6a93b0e4cb9dbb74baf6408029affc01fa1cd07a729200dc45ee6222be350e5689955aab85ac448637ce58db006875de514fdc3475aaf94a4a0e7860a2adea1f11c203d8dbddd94ce4d56047ce663f5ee7673849190daf1d1cf8882a1bca9ec150d7caf0ce65c563dbaf8c463e39a79590b8ad2aafe12714568b0db723c2b9ba4caa585b8909257d55f4e2df3306b66940cf8b99bfe86e629bf1cd763202d5de954ff2ba3abe5591090eddd6beaf93dac9ace562cc80b7a958eb5908bba2f7a3a8fc1448f38c2f475a691939fbb671fccdf0df6badf449a8fa8768fb9f343da50875eb1ba545462e267fc2fcb5202503f1754f7dd0945eab9a9660b0f3dd8eb67f0cc7d925aa672f4311e02b70cf5491982d878f1bcc77153632b59e21aa1ad0a3b95b9cca8c720b40c46b49a690747259ab5420483926cf22f36cd6f863f864941a9b5bd8c7942ae6e57ed6662b2c13261774b9b9b085fe0239d71b1f71cc9dcca6f584711c2a8d9961affc2ef118933eb35726ed9b8ba0031294c5d5ca38ce13503325b127b5efb3352354caa3c8957b55c3b3894803cbea45eda077c1b8479764cc09586f7795969eccd4ef0c1673bcbfd8d91f3e454b67a9acdbf17476878baedbe3304da2bcce0b0f3743565b9ed548699eb0185066799ea4c5f000000000000000000000000000000000000a111a21262e323a",
    "tracerConfig": {
      "diffMode": true
    },
    "result": {
      "pre": {
        "0x2861bf89b6c640c79040d357c1e9513693ef5d3f": {
          "balance": "0x0",
          "code": "0x606060405236156100825760e060020a600035046312055e8f8114610084578063185061da146100b157806322beb9b9146100d5578063245a03ec146101865780633fa4f245146102a657806341c0e1b5146102af578063890eba68146102cb578063b29f0835146102de578063d6b4485914610308578063dd012a15146103b9575b005b6001805474ff0000000000000000000000000000000000000000191660a060020a60043502179055610082565b6100826001805475ff00000000000000000000000000000000000000000019169055565b61008260043560015460e060020a6352afbc3302606090815230600160a060020a039081166064527fb29f0835000000000000000000000000000000000000000000000000000000006084527fc5d2460186f7233c927e7db2dcc703c0e500b653ca82273b7bfad8045d85a47060a45243840160c490815260ff60a060020a85041660e452600061010481905291909316926352afbc339261012492918183876161da5a03f1156100025750505050565b6100826004356024356001547fb0f07e440000000000000000000000000000000000000000000000000000000060609081526064839052600160a060020a039091169063b0f07e449060849060009060248183876161da5a03f150604080516001547f73657449742875696e74323536290000000000000000000000000000000000008252825191829003600e018220878352835192839003602001832060e060020a6352afbc33028452600160a060020a03308116600486015260e060020a9283900490920260248501526044840152438901606484015260a060020a820460ff1694830194909452600060a483018190529251931694506352afbc33935060c48181019391829003018183876161da5a03f115610002575050505050565b6103c460025481565b61008260005433600160a060020a039081169116146103ce575b565b6103c460015460a860020a900460ff1681565b6100826001805475ff000000000000000000000000000000000000000000191660a860020a179055565b61008260043560015460e060020a6352afbc3302606090815230600160a060020a039081166064527f185061da000000000000000000000000000000000000000000000000000000006084527fc5d2460186f7233c927e7db2dcc703c0e500b653ca82273b7bfad8045d85a47060a45243840160c490815260ff60a060020a85041660e452600061010481905291909316926352afbc339261012492918183876161da5a03f1156100025750505050565b600435600255610082565b6060908152602090f35b6001547f6ff96d17000000000000000000000000000000000000000000000000000000006060908152600160a060020a0330811660645290911690632e1a7d4d908290636ff96d17906084906020906024816000876161da5a03f1156100025750506040805180517f2e1a7d4d0000000000000000000000000000000000000000000000000000000082526004820152905160248281019350600092829003018183876161da5a03f115610002575050600054600160a060020a03169050ff",
          "storage": {
            "0x0000000000000000000000000000000000000000000000000000000000000000": "0x00000000000000000000000020bb8cb4a01637a773811ba45b9afd80171a08c5",
            "0x0000000000000000000000000000000000000000000000000000000000000001": "0x0000000000000000000000ff30c9e568f133adce1f1ea91e189613223fc461b9"
          }
        },
        "0x20bb8cb4a01637a773811ba45b9afd80171a08c5": {
          "balance": "0x1ff0509d9d6821e26",
          "nonce": 138
        }
      },
      "post": {
        "0x20bb8cb4a01637a773811ba45b9afd80171a08c5": {
          "balance": "0x1ff01e7e76afa4226",
          "nonce": 139
        }
      }
    }
  }