{
  "genesis": {
    "baseFeePerGas": "7",
    "extraData": "0xd883010a10846765746888676f312e31362e35856c696e7578",
    "gasLimit": "30058590",
    "hash": "0xdf6b95183f99054fb6541e3b482c0109c9f6be40553cff24efa3ac76736adbf5",
    "miner": "0xb7e390864a90b7b923c9f9310c6f98aafe43f707",
    "mixHash": "0x8d76b0d32e42ab277dbf00836eabef76674cd70ae2bb53718175069ad6b6147e",
    "number": "14707767",
    "stateRoot": "0x8a50c896a6f7eb1f3479337db981fa10ce316281cb4dd2f07487be9ca27dae6b",
    "timestamp": "1651623275",
    "alloc": {
      "0x0000000000000000000000000000000000000000": {
        "balance": "0x268fd0b894b8c4f6d1f"
      },
      "0x13b152c9f50878ffaf3de41e192653bda545d889": {
        "balance": "0x0",
        "nonce": "1",
        "code": "0x363d3d373d3d3d363d73059ffafdc6ef594230de44f824e2bd0a51ca5ded5af43d82803e903d91602b57fd5bf3"
      },
      "0x20bb8cb4a01637a773811ba45b9afd80171a08c5": {
        "balance": "0x2cdb96c56db040b43",
        "nonce": "1223932"
      },
      "0x8f03f1a3f10c05e7cccf75c1fd10168e06659be7": {
        "balance": "0x38079b28689d40240e",
        "nonce": "44"
      },
      "0xffa397285ce46fb78c588a9e993286aac68c37cd": {
        "balance": "0x0",
        "nonce": "747319",
        "code": "0x608060405234801561001057600080fd5b50600436106100365760003560e01c8063b97a23191461003b578063fb90b3201461006f575b600080fd5b6100436100bd565b604051808273ffffffffffffffffffffffffffffffffffffffff16815260200191505060405180910390f35b6100bb6004803603604081101561008557600080fd5b81019080803573ffffffffffffffffffffffffffffffffffffffff169060200190929190803590602001909291905050506100e1565b005b60008054906101000a900473ffffffffffffffffffffffffffffffffffffffff1681565b60008282604051602001808373ffffffffffffffffffffffffffffffffffffffff1660601b815260140182815260200192505050604051602081830303815290604052805190602001209050600061015960008054906101000a900473ffffffffffffffffffffffffffffffffffffffff168361024d565b90508073ffffffffffffffffffffffffffffffffffffffff166319ab453c856040518263ffffffff1660e01b8152600401808273ffffffffffffffffffffffffffffffffffffffff168152602001915050600060405180830381600087803b1580156101c457600080fd5b505af11580156101d8573d6000803e3d6000fd5b505050507fa35ea2cc726861482a50a162c72aad60965cc64641d419cd4d675036238b52048185604051808373ffffffffffffffffffffffffffffffffffffffff1681526020018273ffffffffffffffffffffffffffffffffffffffff1681526020019250505060405180910390a150505050565b6000808360601b90506040517f3d602d80600a3d3981f3363d3d373d3d3d363d7300000000000000000000000081528160148201527f5af43d82803e903d91602b57fd5bf300000000000000000000000000000000006028820152836037826000f5925050509291505056fea2646970667358221220c87b2492828fdd7dad3175a32a98ff07fc0eedf106536f2eddd9a016971c56a764736f6c63430007050033",
        "storage": {
          "0x0000000000000000000000000000000000000000000000000000000000000000": "0x000000000000000000000000059ffafdc6ef594230de44f824e2bd0a51ca5ded"
        }
      }
    },
    "config": {
      "chainId": 1
    }
  },
  "context": {
    "number": "14707768",
    "timestamp": "1651623279",
    "gasLimit": "30029237",
    "miner": "0x8f03f1a3f10c05e7cccf75c1fd10168e06659be7",
    "baseFeePerGas": "7"
  },
  "input": "0x02f91c8a018312acfc8459682f00851a46bcf47a8302b1a194ffa397285ce46fb78c588a9e993286aac68c37cd80b844fb90b3200000000000000000000000002a549b4af9ec39b03142da6dc32221fc390b553300000000000000000000000000000000000000000000000000000000000cb3d5c0b90a2015265e09df48fdbb4d25a903611ab26033165930ce5ee140d3c112ce36b59cfdedb85fbda39a2774265af592a87610fba65391a92ac97ebc0f1b599809d6f56594d4cf93c2d9c5457edc684bc22301385df82a2e714d067966634865e0ec4c4085bdbb066338b0cc4a75302272360bbd4cf3e41b754d30962573adfcc2d0d5c7def9424572703ab38ec77dafa6740aa67892b2447f94b758a1f92a5321ff7e39e588174f941b645be3a34715d49bf38c01fd15e799f8cc52d2675a739be2dff51e8f6d4feb7d04c3662e50286d9a109169d25a860f6564dda751e30d159f995260168d18c16f7797769467391ef30763b62401bdca0a316d25ac41e205bf0663f476a7a3ccde674135469d56cbb7b2e6d66da1b38192f8155d2195289aca181c956054810115c4e4766dc5cfb5cac05a7e0d654ff700fedf4e6bc6ba4400fe8a43bdb1139ee7ecacefe1be802455465c6c3f77355cf08b64ac5f6bd0032ba011a77434a21690a769e48dfa379726c757f6b64fc39e454ada5a88b17dfde181caa1f9d7cfce81c351ebe8c45a42ed53bf8ef75d3cf79ee01b7c1144becc69f11eb0e7a8c0f602f1c3d8534c5b36d17f05652d022dd67eac322964e2b6e09f07229a93ceaf5674426091a54e59ab18a6f6003a4a65bde2ad781e2b06ccfafdf62a75579cf3b34511a9bcdb8a0e4a593e8ba6e968412400d5b0bd7288983c463b16a37a3afd2691136fa59613fe5d52fa105be06e22feed475b76adeb7a735b2df574944f0cd82257bf240d5fd098b6baeed96d5d414ad2a2401f540dff4577c1c29548e66f3253b0c41173a9ba144bbef9315db6f992d87af3f392f69dea657ca569271e0b725e970edab865a0c33f3270ffd50359fd357955e00bb97619481409d5f018b719990e425e8678315146d77ede6c293f47e45cc595dacc9fe9a0f2d293113f512f179598ce4b29494701d92481d2cec8ae2f257d97049bdd8d577e810dcaecf24e884f8691d8076d42ed3c3c42b286237f9194a169b6383a332eb13347c7dd65818224703ce3e16d6b1822e47110642fb5b3b0a4784ffdb5bae7b3388fb84aed2d89e6221fa59c358ec4d936951598e22afa74dfbea412952f6e27f1f79a2e4cc76262e0a44bee442fedceb9dd0faaea099c6c1474abd9f80f9de17d5b6278dbedd89386c8bde061fd482b9761d31fd1c9e7cf5433d7e6b864e994e3ed94fbba4e4fe6fd3e92dec5b2d620747663991597c3e49d93698ae779660bb1df45e8ae0ddfb06312ebe9daa299cd0773d5d16b6ba94af05f833d6bb101311a13c9808d58aaa724af619ba59379e40eff798b09bdd5e9b8cea075ce2d8ee1666d2665f403677db0a8382081a0684d7adbed12a404dc34875d8eae71c6f6f2fa3d94302a6f4840fa257ccdfb8672dc845b3ad593ba5e7d0b72947cffda3a3f6ebe89abb1d147e2dc859b3fa2166b579a679b2735e4dc432bbacfa452252772c590195704b1fcd02942a32ef3909160e5bf2dd2054c955106ab070e082e5e844c86a4fc20292a132b4f2250a0bddfd047bfc0b1e93132c69f5185f5ee3f0cd5f8e866442d46be5237feb03aa4b54fb42cc7fb6b0260b345bccd472b009bb07c1139e3d35c69b1095ce24b9d33f70c705c1361d46e637666ac9b17473443768a362779b6b5fbc2ffdb4d420df56fe5662dccc8ee278531557441e4ad3d577a70c9b4ea5ced34eb08f617890a204495a05cd8190f4847c62cfae725d37a62daf6bf0f4bb87a520a0e686ff79e8c0b2a11cf54f0ee2576d9ab2cdedcb2d85040e0000ea95cf5268cdbd9bc86c3e28deb26e3611dfa12149d5afb986a8d96cffa22770ad1efdebd5a757bfff8f8fd83977d6ae71c381ee732d82ca0c2964898e3da0673608979d833c4a4c4a92dd844066fb19d9465f4bf70218a47146c8802dff58391c0a3bc721d8439d64ad9458e84812a6caf6cef0b07f1cf349f13859707da283c4b2da06f7e247388a0b6685091a544d9e541bec8c598f5351db9bdc978f063d70696761a58afffd11bf13ccf08ce8807564200c12fa04f7f090ea7173f69fe300b9c6f914ed8dbf63f83795eb4583ea2ede0f13461b030ba056df1b36e88940f33bb90c7267db29c1986f11d51b5e49965fb7ad3a62f1506d846ccedf4569f420bedd105b34c9cdc783a83a36d2e3d18fb95152b774b7d3d0aecae804f74b946d6fb3b07ed8fa3339f92546454cca532e8b2e8ca69dbb09cd96323ffc0f4fd3cb93a46a62c88577ef6bc53708e80a89fe44518029c70c6bfdab0dbf003c8f0d211c3e209f89b30c793c1ebaf007b790bc58a1d15574fbf082bcbd96ad9c345b2bd1346d9eaf8e488dcbbc521a9092fd17a2ad60c030bdd6351532067ffe09966d4c2b605c6b19a8bf64df0b3419435f9951c0a36cf0ecfd6eedf35619bb5f043520816a5acc437a65ef73b11d0c483dfa7261d931e53cc64bff10ddfba260b0d622c3bd38ed43625b453865f33052ce555d536d75edb676012d5497e073818fabb42b996613612231ed8c577b24a608d5216106d3f30db46c3b2c1f0d6f3730e56e198751237c52171e676792f14dc9981b14c8a6de932e5791611fbdef680d6975bc81b64e2da9769910dcc79fe8c375586cee6dd5343c43db5908b9809ae820fbf9f303bb0bc790da3e09f4e69eccb009cf98a65b7e2a18123f8a2f7dc925c12cb2241d7527944a11b3c9d39fa56f086bd437d46cbdf72790f2dfa1033aed92cfc608627e14cbbde7d5791efa693f22c67781e7efe71d30a147f455c884c9cff8170c392412a99c56866494a1b8d8f3cb93ece6cad05b9b267ffa185232853e57e646d0c8c25a47547a28f58aff90da4ba3404df064158caebd49547cbf048ed6b1e8e72b8516ddae8fff83fccf2599a93b46a1ceacd7b5841a882be7e56f6128a6d50ee7f89c8ed259f31dc3468f4f18b5a852080fc238f7a6586c44ccfa1837929c011c83d1ddf906256e03414d97ae5c85c1c2e939b7d02487efc7efca7ec35f044772ed3df56228f2c50461927e9149350849336213cd602941069119556237bd144f1fb8be57a29c602297c5cf111c2eb246106a30bdb5b4e043beabdb59ad494ee1385b132f6e8a44f9f2334c6e9f7f4d626c9ac7595a3e8bec665af3259313020c4ee2a8c446e01b5dc780cac22555ee2612c176edfa6825248ea7985ad7b418ae7bf7ef43f1e538d9dcde0510ef36ce7dee4088df43e4133ca23af19c03e02834bb6aff29aca247c615a552a3d60873985a6227f6d5759ac6560598adac9ce987a5609bc1bc9f81ae1699f6a2fcc902235c33244f9bc67c7731a0ea3936dfe095c6b94755a29b987186d40d2d360ae4432f82ec5e9b8d2ac2e35d50c1d309c658d81ecc965cec0dcc4d5f8625b6f5e5e59cdf485f654f56d4401d3867f2df215769052c1f5b57a604b370583e514b0df7c1a14b48442ada890014a6d4defc5f01e70fcfcd4dd6bda05955ad4bc9f9f46db91bedf2f44abf31149cff76046e3cfdadff7f34063eead986cfbf1ff6d3e56fe3a5af33cea69d6929b97f946ce8a6acdbb966b2afa1ac3de597574ccd589c510861516f371c0d0b85187b49fe45b518c78846ecdad72d3b4249301bc30a1e81c34c459e06171cf52d7b911f3e6d266e0f17f3f554ffeb4f816b0086b442fe33f6ee5a1d316b1b5112f690a956bcbd1f19b980151c3d5e9f803a4ce9ef02fc7e6e813798c5be49bed50ae5f148ebcfb10c901d0bba7a762a992bce5006c59f17c746365e8473983f925d32dabec7fb88b5f70cee4218b9903d637d0e168a48d5ddd712d18f47e25f7d6eb51b417a65f97c4bf48dedd18d4428cc1455489f6419e9abfb16f62626898552dcd2aeeca9407f648fdcb3bc7073d9f6ee99bed1bca36c53c888c809e4c4754ed86914ccaccf33c901189b0ca0153107735de6022c1271952f50ef193bac439bbe5e854e6688e81ab924678083ccb31ace26f6febeac634c31589a4a72bd185cdcb81b9ff6ed578c1894eb3d6187e4bdd3f5b6231f9846a50e67e1c0d42671181ddee0965b2038cb6a35c659e9e4ff6e694104ddc52c71014758beab73c9e5d32cc9e1151082375bb8d39a970734ea201e954a9f339a005abb5613b4707dbd9a737ba8f48ceed8fb714d819602a513eab891caf06a2194351cfb673b5d43f87282102f2890ac810823a29647aa1a4876cb2f9cc1f93abef197ce6e4b993a91d946c70f8df446ac58930db37bfe601cd93a3a6dcaf5a54fbb02c5efd626783e5db56970af699e975e39a81bdbbc1ec389bbd36805dc65d07d60187abe66deeaf2935ebdfd69e4007ed6c635ab4ce7dac09fe9535bff07507ac2a7f8c6bc20e4b5ad96294a4725ab12a4e75fa5aba321d5cbdc240d99683edb7a3115311299cdd61fa74574014eb77da724c2677d648d56082e37cc6e7d113fe39101ca39bde7f77419b98668a715ea46598ed1544a2f6eb008380211b4b6cf09e4d6f63f6fdbb75c3fc89e505256a02f4743852c972d98d1b456180557e4efe4420dc8f1e85c0ab7b6aa0618866a3b9178242e7eb5ebc4cab3c1363a44b9a7fde496826858d76a57f7adce94aa87436b5f5ee3dff45843a0bd09680b19ed142c4ad08844c0a9c52fb74f9d9bb3d1f561dfdc05adc1a3f8075210eaf6e1670c83fbf4d663a41764a1629e491567ae62ec118971e2329fa37cb2bd5246971ccf8270dcedc527b5dcf7ed1c9562ae67b35045101e29ebd2cf406d4755efeaf464d39fe53380c90c7c801e46937d6f862446edde3732f6631fa8527f66c4ddc85b58cd577f3b53742c23e91507da52816ac462770c7933af91922c70d3a8bb1893cae5fe2486fc3935a7ae59e559e3df8251bc55ea0a1129cd1d2d33065c6eb2b6c5e6aca985112380aac01688c725ae4cc5afddbf6c69404847c9f998a03ffc53266be9911256f48e7071c7d3acef7408ecb45ac1db8fc1be24bba8a8fad86ae08da79fe689fa8fcbab06891fd6f7e879e556141c840fe79fda6e42f2b56f14167b7a59632ff43e967f95633bfd5627a39465eac9dd67a6a0362f443c6127ef4a582aaad886462120201d4690154c705a735a29aaf25242e98ca534defa0ad36721c2cb788cbb6ed6c3aae2e306dde2f749ee72921c5ab354196854a543abecea33864d24f65b490d025b8a7a8c8610da27a994b6357ef8821735ef020a1ec3737984bdc232a3e8808bb859bc7a56e257e443d7c4cd279b2cff57c1c1725ac110cb01229462d58cb1410ed5cb522d72883e60da1bfa3e7cc91bb27610f046b2573efd7170629587e8e7fe8f792c4d89717323065f5a6b3c199a12066ba847e169550fe78bcf67a4643671a8795ea4bf87801fb70c76b09e94f04821ee328a9cf461606b5832c78392d24f62f2d969b4d3338faf19eba54af25907307dc15cf39fdef6168355f12494f661218e99816fcd7cc57c3af7bfc77d476ffe474dfaf444fe20f1159172b4c5b76d98b92d808f38d2bcade84341115dcc55be214d92a067d8220a9716f2cdc69cc327085ca5667302229afb6c5fcad93c23de090ed70568dd6d71077827ee1d01e4d985f42a478885cecaeae04368b24ee8a9846c00ff169db2cc90486c0849a385507e1fee12b43608543a17c09bfc9c196ad14a4802e74dd9a2952e3e33fb00c3fb58f805d156d8255b0fa9382b35709320929d4dacc2151f1d492e1aabad6a1af292a6abcb8f54a54fa0550e676d8d8df9ddf470b6adf63daa84a254f0fa24fbfdd7d5b9e9bb862a81602fdbb5ad8a3012a7c082bd938dc9227c2b4dba20b5dc85775c5313d69de06fb07ad1194e18aef9b1ed78dac3652c5b55bd35737f13495793834bf3ae38823529df242d5b4a5089bb4eac63f6a3a60d4268c6a0181fa57af2315251cfb7a177bec1b71c7cf94769d62489549f242dd309a77f982a4590ac77c82c222f3d9daaf0619adb4c1e8bbcc67f20dfe27cd46489d80ee170757d6b5275f996c48e08141f1c4ef7784ffd3a4872c7c4c8f5b89fdbe76b6c63708d18fce2256aa85bee11f823b7531b2618a0f800095aea4d7c6f772900359c98489ecae47fe4dd44e688c888dac8a19cb0cd309c5df71c2eadf6fa34ed8c9b3b65d01f757a74173bd9d4262c8d20c6145b8d1d7bd88299e2f86cbb8ac11acc45c5b34a2b7764571bdd416fed6099c6c74f26b2ddd6bf5a15049034ea75419fad141b98979f0f39ae3122765b323500c5f7c476e1e091ea31dc5e30c2c467fb4da6d70b9885e20736ac98acb69ba9505b5c7b11640f14e50d2e770dab2b800f07f9971f142752e4e9a126972c09f1ee5a0282b9ba2c436cccb1c65a7796024568e27d650dd50809997b551ac3bfcbc4ca10f9c410e8d3093bf3d459c3516ad06b5e450e393fbe3c0fc924542dbd6e89dba582d0472204b8704d3023100313448fd24c8ff78023570c6fa1bf08cbf54282564c2001065019b74d28d14a9b1c47978b64f36efb0200089042ef6109583857937837058fcd7e2e8bd74248e1b60f1fa6217af765d1a4885c32b18a11d25034d27a3d8349127c90f3f012fb75c1916ff95304cc1a3bdab54a73d4dfed24d2b2a17639dbeff600f0bbcea61140c56385de9317f24f3d1b83e732feaa4ff27671a5fc3da7a27500ab100546f94eab294262a1462d406c4c946d91df9911c78fb10cb1e1b65e88fd4b29120c39a5fb087eeafbf3ebeaef0c0f1dfbb31bc09163d6251a080f3c594f4e0af3f6141617cd2202605dc5da15e5928705c7fccfd416eb6d595b84a2dc5057a22a79456bf59e3a32e0f93f5fbcc41a77e59326c0be50ba01a1edcdee6fbdd500a1cf454d5435e9be46c6d900ce16d220537e8eec4190543572ef61a7a31f868e31c3a9e4bc3a0e079c4f9c920fdd80b22efae5688072dacd0f6c75f7b2af8f68446e527231375a7d015cc4c01140f991fae8910b8d07776edd34b5c7944749daafd3153e5ffc2aea0769aacb6c98b69881def08d10a77dc2a4295172eb347faab02196d2402aaf702e73453df8510d15b90bf47fd94c6e48f4010ce271ab9bc3d85d4dc11851dfb13f200d063e2cf1d284f3752c166caad2dfde79ff3c55465bfd509e32a34e32556ef4d7fd73b77824e287c258cd63c536820adadd44bc96a9a08678bbdec7690713c3a789bdd9686b61cb0af2a6878ba54f67a1604f6fabf529082f6a9a0210f00a963e38818b422326eeaf0e85e612dae37204462d2849871549d5bf4d5b9ae92414df46161e898f7b877d01d32433561b6f633faa77164cce94bbdab267a0bb6fb844bbfc778d1d00cb4d8d4b0364db690e210a931f8ab0a138d7600425fed409a1ecad920958bc8c959d31b736e48f8375364e16f64de18c69d50e4f6e4aff2e22a7c6b30c801f809c568c59cca9d50b2d2895dc5f4d1adccbc21483a4667c4f1ad112237a43b5da76b77929708003aede6e68a071d76c29aa1055b22f35a44bca1d36098342e07ebf9fbc4e535634f12c254579c715a99f0c71ad88c165a1de54650ea1a731d20e91693c0a7f47f0ca927373b168162a6e0330071bef855e3ff04b217e794c8457ea26b6f7ae5243c9eb7ded4244dc8b1370a5763000af5f0fcac1d8fbeba64e82204ad3970a26ff20f3990f4b5da9d1d0a0955b2a416dfff129aeeb3d58a9414d8671687142e7f9b37329034aeae42f65bc4d057f854c32e57a1bf267a7f23b988e5839a0a4ccb1aaa1408eba428cee223d60c4a4f44c2a5eda7d2e55c69dfb784b9238cb5e5d1db6519ce54199decafcb698fc3721a2ed278b007e7d7db108d80b8b7cc0dce4652c4cbd024763a8bd8769689f416c6320efdd38a347689031f4f0e518a3767ed5b12eeb0a9cf4f3f414272e156e5f95157129c0a4bba01bf56495f46fc0340f96988534b8a2acc18584ebd21391f69610a1a735052aa31d296cdad43adabcbb99978752a91adf952918061e2539ae82395bdf2db5c71c24754b24f7d4151f0834056805864498d38b44153dcb224c75bc16ddc73319b1bb63363c6cb848f161b98bdd43cbb72af8a60c294bd6cf37861bdfba0dcf7ceac3e5b41cd6120adff0e2632cbac163573340f7b89e3ee5eec1f496a2ff4ae15c156ae5e2b9d1efec4ebbd5e3e23e4ea326380c2b763dbd054f99bf7322484de9dfee11135e97da9786d7f6984be4650fd88a6ebafb1e336b5787b68af67a461b04991e014c10272aa0c8f0ead3caaf2d14442d803d347a069b6586005a1449524ac09a8c6ae165017dcaaba1107ad3f35edcc4d3a295916c582ab41507bb6ae78dfce449cab5932dab1a798c9c2b10ee40ff578bfdf215a6837d6a5a1a17b47485dde40790c4c81af1b5fce2e9aba1a872f67254dc74f72bccf0963490614f4da9b9bada4969988f0a49349e353ba7114dccc53b256384e0103159ac881b1a9b5b110c3ee26117a5d567e19da75a4d27502d650fc647964ae6b9c4b765f7811b5d420fb24fba69bc87c91f75b9e33873d0f5f54d7e690c36cad00f7a08173fe64f72b076cc3b90b365b52299765d29270056ae1cf5748a08c74af9748bbe5ed1fda34329f420f21faeceb94cfef0790ad54fc8d3a6552d80f8b27b316b5b4a22c90d632d1a69cc33617c8ad91b23d4a9f8b58258606e73daee547de4fc47c258b587063642154bc04e1205ebfe8fa95ffd5c653ffbf8b821fb58f28be729778314db832ab2d4f14841d21dad1dde1db542ac0dd528f667520922ef59b4bed2b31117c35738afee0aee06bbb547c624be6c56aa25592774c59c5920bc0c67f4850db3c29ac58086d3d7ad4d5b815f992b20cf69dfca5a3f2283066db851d913ba3010d80e8697541579893204db41a63b34dd0160d0bb88ca94793acfe809b7244a8f425a2a31d6594c3702f277eda64f9ac7f29b59ad1a9ba81a7a1c3f20c50e278d5f0bbf4982cb23b5190d973d0d8dd8a9199a42006660a481332d4c92443cd35894001d4040e2ee1539f11e3fb975d1d691442f67484b73cdadcad5070b978b4b0eb6a36e8aa78b7957126d9d9df0d693c7be71c79a79411befba11fbfa99c573d1d459aa5a46da81946030b113358273f385d23059d9bb981d67e4b1eb8065cabc71d6185ef1b25ac83403c4267f053c6501ae939f3aca45c86dbe5da013296a104352f057d8a400c4c1c9a41b7ee288939d29b17ef0a77e3ffe1e1cd16ac6055848965b0ec127a88a3e134470755b92ca2db21dadb296341bfbc22d1841fa32c3820f5ff7505d2b231168aa641e82b4927d67826b6ed745a3c37ba13d4a47ed82ae59e975e6bff7ce87fd913769b68a918a001946cb68dbf82a69c71fdf46a0cef8896fc4e57a9637944e5d101a484cd4a5b99eef5db393c150044e8d1a455938cd2c8c881d56b7c7052e0805d735e27235095ff21c9debc8f4c9d356b756d33ea03831d991a64d0b9fc29a78de0087ec5e56d62928ce5ae82ff198887916d3e3dc2c1b719cfa9baf0936de850c2fc28b8de8561feab3e6520ae762b0e5bbe3697c52245440a3c25b7def489f7bdd9092562f309d4a2d5ed33a52dce9512d872f8c89de78526c88b912da5804a202a057b1571cc2ff3bcbdaa44de873407c7fceeb7b7d3a1864baec5ad3e22fe007772164e799a2c725ea1e8fd472beb46b55f5d88b06b6f2bbf474940f617b120b06cba3391dea0af9c683d2307418e4ce96f85079d751c5bef680292ea9421ff61568f35f2b581e0907a028df8c6e242226894969851d45b5ea5cb3be5733d03f4e0f4e53792fc5a310d026d3c90b701ef760dab813b20f8ab5888581b16fa31ae9c28e9abd41a26b82f464e8e2766a83a1715c9f36869cf51eb5a3ec71e64b5a0bec1ec83fb6596b8bcda75ee64180bbe7b6f62499ec5719930210190956c8f1207cbdb13cf4c73ff8df6d35c2313b684a101b148cdded46a38ed2c4e903ec4aabcbed4cc0c861bbbf464ccc779d5dc8faf650762625e84fc349828860556c9e283ae543e2b7f4f1b4032599bb4b6f2f6092c4e7a97ad4a91a2a75c768c9ae2ec6096ae122e616cb6ccd6eaf7090a161a47bbc9cfdeef0d3c4e5e9300000000000000000000000000000000000000000000000000070d11171a232d32",
  "tracerConfig": {
    "diffMode": true
  },
  "result": {
    "pre": {
      "0x20bb8cb4a01637a773811ba45b9afd80171a08c5": {
        "balance": "0x2cdb96c56db040b43",
        "nonce": 1223932
      },
      "0x8f03f1a3f10c05e7cccf75c1fd10168e06659be7": {
        "balance": "0x38079b28689d40240e",
        "nonce": 44
      }
    },
    "post": {
      "0x20bb8cb4a01637a773811ba45b9afd80171a08c5": {
        "balance": "0x2cd72a36dd031f089",
        "nonce": 1223933
      },
      "0x8f03f1a3f10c05e7cccf75c1fd10168e06659be7": {
        "balance": "0x38079c19423e44b30e"
      }
    }
  }
}
